:020000040800F2
:10000000305800203D020008271A0008C9180008CF
:10001000251A0008C10A0008E528000800000000B1
:100020000000000000000000000000004F1C00085D
:10003000B90C0008000000004D1C0008411D00081C
:10004000570200085702000857020008570200082C
:100050005702000857020008DF0C0008E50C0008F2
:100060005702000857020008EB0C0008570200086E
:1000700057020008570200085702000857020008FC
:1000800057020008570200085702000857020008EC
:1000900057020008570200085702000857020008DC
:1000A00057020008570200085702000857020008CC
:1000B00057020008570200085702000857020008BC
:1000C00057020008570200085702000857020008AC
:1000D0005702000885250008512600082D27000832
:1000E000570200085702000857020008570200088C
:1000F000570200085702000857020008570200087C
:10010000570200085702000857020008570200086B
:10011000D1220008AD23000857020008570200084A
:10012000570200085702000857020008570200084B
:10013000570200085702000857020008570200083B
:10014000570200085702000857020008570200082B
:100150005702000857020008570200080928000843
:10016000570200085702000857020008570200080B
:10017000570200085702000857020008000000005C
:10018000570200085702000800F002F800F047F894
:100190000AA090E8000C82448344AAF10107DA45E2
:1001A00001D100F03CF8AFF2090EBAE80F0013F0ED
:1001B000010F18BFFB1A43F001031847B861000094
:1001C000D8610000103A24BF78C878C1FAD8520725
:1001D00024BF30C830C144BF04680C6070470000C1
:1001E0000023002400250026103A28BF78C1FBD840
:1001F000520728BF30C148BF0B607047642900F028
:100200002D81752900F02A81732900F04A8300208E
:1002100070471FB502F0A1FE1FBD10B510BD00F064
:100220008DFB1146FFF7F5FF02F0D8FC00F0ABFBA9
:1002300003B4FFF7F2FF03BC02F0EDFB094880476F
:1002400009480047FEE7FEE7FEE7FEE7FEE7FEE7B8
:10025000FEE7FEE7FEE7FEE704480549054A064BD0
:1002600070470000511E000889010008305200202C
:10027000305800203054002030540020704753EA9A
:10028000020C00F069802DE9F04B4FF00006002BC6
:100290001FBFB3FA83F503FA05F424FA05F65E40AE
:1002A00012BF1643B2FA82F502FA05F4C5F1200531
:1002B0001EBF22FA05FC44EA0C04203556EA044C21
:1002C0004FEA144418BF641C4FF000084FF00009B7
:1002D000904271EB030C39D3002919BFB1FA81F7B1
:1002E00001FA07F6B0FA80F700FA07F6C7F120071F
:1002F0001EBF20FA07FC46EA0C062037B6FBF4FCCA
:10030000A7EB0507103F07F01F0BCBF120060CFAF7
:100310000BFB2CFA06F644BFB3460026202FA4BFE1
:100320005E464FF0000B5BEA060C08BF4FF0010B76
:1003300019EB0B09ABFB027C48EB0608C01B06FB64
:1003400002CC0BFB03CC71EB0C01C1E70B46024660
:1003500041464846BDE8F08B13B54FF000004FF022
:100360000001AFF30080BDE81C4070470FB40449A2
:1003700010B503AA029800F099FA10BC5DF814FBBE
:10038000280000200FB47CB50C0009AA009001D011
:100390002044401E084B7B4469460190089800F0B9
:1003A0004EFA05461CB10020694600F05BFA28466B
:1003B0007CBC5DF814FB0000D504000070B5044659
:1003C00085690068C10601D5302600E02026C007F7
:1003D00007D070BDD4E9012130469047206A401C07
:1003E00020626D1EF6D570BD70B504468569007833
:1003F000C00707D170BDD4E9012120209047206AB1
:10040000401C20626D1EF6D570BD70B50C460546C9
:10041000012A05D02878800600D5EA69002302E089
:10042000012305E05B1C934202D2E05C0028F9D175
:10043000A869E618C01AA861286A184428622846E4
:10044000FFF7BCFF04E0D5E9012114F8010B904748
:10045000B442F8D32846FFF7C7FF70BD2DE9F0413D
:100460000646002410687529314616A510D0AFF352
:100470000080002802DA404213A507E031688A07AD
:1004800001D512A502E0490704D511A5012401E018
:10049000AFF3008000210A2206F1240709E0B0FB37
:1004A000F2FCB0FBF2F302FB1C003030785418462B
:1004B000491C0028F3D123462A463046BDE8F041C6
:1004C00000F05EB9000000002D0000002B000000CD
:1004D000200000002DE9F05F894604464FF0000A35
:1004E000DFF874B1FB44C0F820A02046E1688847DB
:1004F000002874D0252806D0D4E901219047206A2D
:10050000401C2062F1E700265F462046E1688847EC
:100510002028054607DB312D05D2781910F8200C6C
:1005200008B10643F1E7B00701D526F00406C4F888
:100530001CA00027C4F818A02A2D09D0284602F0D4
:1005400063FA38B304EB8708303DC8F8185019E057
:1005500059F8041B204604EB87029161E168884743
:10056000012F054618D1E069002820DA26F0200680
:100570001DE0D8F8180000EB800005EB4000303893
:10058000C8F818002046E1688847054602F03CFAA2
:100590000028EED1012F0AD02E2D08D12046E16887
:1005A00088477F1C0546022F46F02006C4DBA06961
:1005B000002803DA404246F00106A061F00701D0AE
:1005C00026F010066C2D0BD0682D09D04C2D39D09B
:1005D0006A2D35D0742D35D07A2D33D016E038E021
:1005E000E1682F4620468847B842054609D16C2F5E
:1005F00026D04FF48060E1680643204688470546D0
:1006000004E06C2F1AD04FF4807006430DB3A5F1AF
:100610004100192802D8203546F400664A4629468A
:10062000204626604E46FFF7E9FD80B101280BD039
:10063000F61D26F0070000F1080956E74020E4E720
:100640008020D8E70020D6E706F104094DE72846C8
:1006500052E7206ABDE8F09F345E0000032A40F2B2
:10066000308010F0030C00F0158011F8013BBCF154
:10067000020F624498BF11F801CB00F8013B38BF6C
:1006800011F8013BA2F1040298BF00F801CB38BF7A
:1006900000F8013B11F0030300F01A81083AC0F0A2
:1006A000088051F8043B083A51F804CBA0E8081040
:1006B000F5E7121D5CBF51F8043B40F8043BAFF373
:1006C0000080D20724BF11F8013B11F801CB48BFCD
:1006D00011F8012B24BF00F8013B00F801CB48BF03
:1006E00000F8012B70474FF000020429C0F012807F
:1006F00010F0030C00F01B80CCF1040CBCF1020FD5
:1007000018BF00F8012BA8BF20F8022BA1EB0C01A9
:1007100000F00DB85FEAC17C24BF00F8012B00F89F
:10072000012B48BF00F8012B70474FF0000200B5C5
:10073000134694469646203922BFA0E80C50A0E804
:100740000C50B1F12001BFF4F7AF090728BFA0E8B2
:100750000C5048BF0CC05DF804EB890028BF40F87E
:10076000042B08BF704748BF20F8022B11F0804FC0
:1007700018BF00F8012B70477047704770477047EB
:100780002DE9F0470D4699469246044600F12408AB
:100790000168880604D5E06921F01001216000E0BD
:1007A0000120A84201DD471B00E00027A1697A195A
:1007B00002EB0900081AA0612078C00602D4204686
:1007C000FFF7FCFD002608E0D4E901211AF8060035
:1007D0009047206A401C761C20624E45F4DB20784E
:1007E000C0060AD52046FFF7E9FD06E0D4E901215D
:1007F00030209047206A401C2062381EA7F1010774
:10080000F4DC07E0D4E9012118F805009047206ADC
:10081000401C2062281EA5F10105F3DC2046FFF7ED
:10082000E3FD2078000602D50220BDE8F087012014
:10083000FBE7000001694A1C02610878704700B5B7
:100840008FB0CDE901310021059105497944CDE909
:10085000031011466846FFF73DFE0FB000BD0000D3
:10086000E5FFFFFF0A6802F8010B0A607047D1E953
:1008700000239A4202D2531C0B601070704710B5CF
:10088000436913B1AFF3008001E0FFF7BEFD012023
:1008900010BD127800F124010A7000224A70012272
:1008A000EDE711684FF0FF32E9E70000074B70B544
:1008B0000D467B44FFF7C3FF0446284600F03AF894
:1008C00010B14FF0FF3070BD204670BD17230000FF
:1008D00010B5203AC0F00B80B1E81850203AA0E8DB
:1008E0001850B1E81850A0E81850BFF4F5AF5FEA0F
:1008F000027C24BFB1E81850A0E8185044BF18C9C2
:1009000018C0BDE810405FEA827C24BF51F8043B68
:1009100040F8043B08BF7047D20728BF31F8023BBC
:1009200048BF11F8012B28BF20F8023B48BF00F850
:10093000012B7047007B00F080007047754600F087
:100940002BF8AE4605006946534620F00700854661
:1009500018B020B5FFF780FCBDE820404FF000063E
:100960004FF000074FF000084FF0000B21F0070197
:10097000AC46ACE8C009ACE8C009ACE8C009ACE8DA
:10098000C0098D46704710B50446AFF3008020467D
:10099000BDE81040FFF74CBC00487047CC51002028
:1009A0002DE9F04186B00E4607461D4690461421BB
:1009B0006846FFF7BAFE2F4C6078A8B90120607036
:1009C00001F032F8002110232BA2084601F0FAF8BA
:1009D00010232BA21946002001F0F4F810232AA2BC
:1009E0002021002001F0EEF82079B8F1000F1FD08F
:1009F000012802D1A07887420ED03B4623A21421C1
:100A00006846FFF7BFFC10236A460021302001F042
:100A1000D9F82079012802D1E078864215D03346F2
:100A20001CA214216846FFF7ADFC10236A4608E0BB
:100A300058B110231AA20021302001F0C3F810236E
:100A400019A21021302001F0BDF86079A84208D029
:100A50000DB117A200E018A210232021302001F0D0
:100A6000B1F8A770E67084F80480657106B0BDE83F
:100A7000F08100000000002054454D503A00000075
:100A800048554D493A00000041513A00253375431D
:100A9000202020002533752525202020000000007F
:100AA0002D2D4320202020002D2D2520202020002A
:100AB0004241442020200000474F4F4420200000A6
:100AC000FEE7000030B585B0002414216846FFF72A
:100AD0002CFE20200090002001900120124D029059
:100AE0006946284600F02CF905E0012000F01EF8C8
:100AF000641C782C0DD82021284600F019FA012812
:100B0000F3D0002408E0012000F010F8641C782CD9
:100B100002D9012005B030BD2021284600F008FA96
:100B20000028F0D00020F5E70000024070B5074C27
:100B30000546666800F048FB0549B0FBF1F16943E2
:100B40006068801B8842FBD370BD0000001000E08D
:100B500040420F000F4808B50268002142F0010230
:100B60000260006800F0010000900B480268D201AA
:100B700003D4026842F08072026008484160016854
:100B800041F00101016000F06FF8BDE80840FFF797
:100B900099BF000030380240FCED00E0001000E09A
:100BA0002DE9F0410020194E044680464006070E0C
:100BB000002505E00120FFF7B9FF6D1C642D1CD84E
:100BC0002021304600F0B4F90128F3D0002505E0DB
:100BD0000120FFF7ABFF6D1C642D0ED8202130469D
:100BE00000F0A6F90028F3D02820FFF79FFF20216E
:100BF000304600F09DF9012800D04046641C38437F
:100C0000E4B2082CD2D3BDE8F0810000000002401D
:100C10002DE9FC41064600200D460090019000F0B1
:100C200023F8FFF74FFFC0B900246F46FFF7B8FF66
:100C30003855641CE4B2052CF8D39DF800109DF8DB
:100C400001009DF803300A189DF8020003441A447D
:100C50009DF80430D2B29A4202D00120BDE8FC8156
:100C6000297030700020F9E710B586B0142168466D
:100C7000FFF75BFD202000900120019002900020F2
:100C80000C4C03906946204600F05AF800222021BF
:100C9000204600F05AF9142000F02CF801222021FF
:100CA000204600F052F906B01E20BDE81040FFF7C4
:100CB0003DBF000000000240704710B528B15A2126
:100CC000082001F01FF8002104E00021082001F0B5
:100CD00019F85A21BDE810400C2001F013B801208A
:100CE00000F022B8022000F01FB8102000F01CB85D
:100CF00072B6FEE770B5044600F02CF90546601C9C
:100D000002D004480078044400F024F9401BA042BB
:100D1000FAD370BD08000020012801D101490870F4
:100D20007047000000000020044910B50A68024224
:100D300002D00860FFF7F0FF10BD0000143C014036
:100D40002DE9F84FDFF8BCA10022012503264FF062
:100D50000F090AF1040BAAF1040E00BF0B6805FA93
:100D600002F42340A34270D10F7907F00307012F4B
:100D700001D0022F16D187684FEA420806FA08FC14
:100D800027EA0C07D1F80CC00CFA08FC4CEA070C57
:100D9000C0F808C04768A7430C79C4F30014944016
:100DA0003C4344600C79E443A4070AD0C4684FEA8A
:100DB000420C06FA0CF7BC438F6807FA0CF727437E
:100DC000C7600C7904F00304022C12D1D40800EBA4
:100DD000840CDCF820405707FF0E09FA07F824EAD4
:100DE0000804D1F8108008FA07F848EA0408CCF89B
:100DF000208004684FEA420C06FA0CF7BC430F79D6
:100E000007F0030707FA0CF7274307604C6814F450
:100E1000403F70D03C4C276847F4804727602468E7
:100E200022F0030704F480440094384C07EB040CD0
:100E3000DCF8084897074FEA177809FA08F7BC4327
:100E4000334FB84202D1002724E054E0314FB8427A
:100E500001D101271EE0304FB84201D1022719E02D
:100E60002E4FB84201D1032714E02D4FB84201D1D3
:100E700004270FE02B4FB84201D105270AE02A4F83
:100E8000B84201D1062705E0284FB84201D1072713
:100E900000E0082707FA08F72743CCF80878DAF8C3
:100EA00000405746D1F804C09C435FEACC2C00D5E3
:100EB0001C433C60DBF800405F46D1F804C09C4313
:100EC0005FEA8C2C00D51C433C60DEF8004077467E
:100ED000D1F804C09C435FEA8C3C00D51C433C60C5
:100EE000084F083F3C68D1F804C09C435FEACC3C03
:100EF00000D51C433C60521C102AFFF42FAFBDE804
:100F0000F88F0000083C01404438024000300140A6
:100F1000000002400004024000080240000C0240B1
:100F2000001002400014024000180240001C024061
:100F30000069084000D001207047426921EA02039D
:100F40000A4043EA0241816170470AB181617047FA
:100F50000904FBE701488068704700000800002092
:100F600002488168027811448160704708000020BF
:100F70000B4810B5016841F400710160016841F44B
:100F800080610160016841F480710160032000F01C
:100F90006FF80F2000F006F800F024F8002010BDD4
:100FA000003C024070B50D4D04464FF47A7128782C
:100FB000B1FBF0F00A490968B1FBF0F000F010FB5A
:100FC00048B9102C07D200222146501E00F030F8FC
:100FD00000206C6070BD012070BD00000800002082
:100FE000140000200A4808B5016841F480410160FE
:100FF000006800F4804000900548001F016841F03F
:1010000080510160006800F08050009008BD000031
:1010100044380240002809DB00F01F020121914002
:101020004009800000F1E020C0F800117047000086
:10103000F0B40E4B1B680C46C3F30223C3F1070543
:10104000042D00D90425191D072901D2002300E031
:10105000DB1E012606FA05F1491E214099409E40FB
:10106000761E16403143F0BC01F0BEBC0CED00E032
:10107000064900F0070208684FF6FF03184040EAEF
:101080000220034A10430860704700000CED00E0A6
:101090000000FA052DE9F0470E46050065D0DFF89F
:1010A0001481D8F80000F7B200F00700B04207D270
:1010B00088F80070D8F8000000F00700B04254D162
:1010C00028683D4C810712D5400703D5206840F4BD
:1010D000E05020602878000703D5206840F4604085
:1010E00020602068A96820F0F0000843206028787C
:1010F000C0072DD0304968680839012812D002286D
:1011000013D0032811D00968890700292DDA216836
:1011100021F0030101432160FFF71CFF814641F2EA
:10112000883A0EE009688903EFE709688901ECE76E
:10113000FFF710FFA0EB0901514502D90320BDE8DC
:10114000F0872068696800F00C00B0EB810FEFD1E8
:10115000D8F80010404601F00701B14207D90770E6
:10116000006800F00700B04201D00120E7E72878CE
:10117000400705D52068E96820F4E0500843206066
:101180002878000706D52068296920F4604040EAE5
:10119000C100206000F03EF82168084AC1F3031145
:1011A000515CC8400649086006480068FFF7FAFE2F
:1011B0000020C4E7003C024008380240642F0008C9
:1011C000140000200C000020014800687047000057
:1011D000140000200448054900680968044AC1F366
:1011E0008221515CC840704714000020083802403A
:1011F000742F00080448054900680968044AC1F3CF
:101200004231515CC8407047140000200838024049
:10121000742F0008154810B5006810F00C0214482F
:1012200013D04110042A0FD0082A0ED10F4C241FCE
:101230002268236802F03F025B0207D52068C0F3F2
:101240008810A0FB010106E0084610BD2168C1F32B
:101250008811A1FB00010023FFF711F82168C1F3F9
:101260000141491C4900B0FBF1F010BD08380240B3
:101270000024F4002DE9F84F04006ED02078DFF848
:101280004C93C007A9F104054AD009F10400016894
:10129000C1F38101012908D00068C0F38100022850
:1012A0000AD1D9F80000400206D52868800337D556
:1012B00060680028E1D033E06068B0F5803F10D06E
:1012C000B0F5A02F286810D020F48030286028685E
:1012D00020F4802028606068A8B1FFF73BFE064636
:1012E0000DE0286840F48030F4E740F48020286066
:1012F000F7E700BFFFF72EFE801B642873D828682D
:101300008003F7D50CE0FFF725FE064605E000BF99
:10131000FFF720FE801B6428F0D828688003F7D4EC
:101320002078DFF8AC8280074FF0000A3ED5A7484E
:10133000001D016811F00C0F08D00068C0F3810097
:1013400002280BD1D9F80000400207D42868800792
:1013500016D5E068012800D112E033E1E068B8B1A9
:101360000120C8F80000FFF7F5FD064605E000BFC4
:10137000FFF7F0FD801B0228C0D828688007F7D54A
:101380002868216920F0F80040EAC10028600DE0DB
:10139000C8F800A0FFF7DEFD064604E0FFF7DAFD1F
:1013A000801B02281FD828688007F7D42078000700
:1013B00022D5864F87486169703771B1012101607C
:1013C000FFF7C8FD064604E0FFF7C4FD801B0228B6
:1013D00009D838688007F7D50EE0C0F800A0FFF7FD
:1013E000B9FD064605E082E0FFF7B4FD801B022848
:1013F0007DD838688007F7D42078400768D5DFF8B3
:10140000CCB100270BF13C0BDBF80000C0000BD483
:10141000DBF8001041F08051CBF80010DBF8000041
:10142000012700F0805000906B4E3068C00510D44A
:10143000306840F480703060FFF78CFD009005E06C
:10144000FFF788FD0099401A022850D83068C0057F
:10145000F6D55E4EA0686C3601280FD0052830689E
:1014600010D020F001003060306820F004003060BF
:10147000A068B8B1FFF76EFD00900FE0306840F053
:101480000100F4E740F004003060F7E7FFF762FD89
:101490000099411A41F28830814266D8306880074D
:1014A000F4D50EE0FFF756FD009007E0FFF752FD80
:1014B0000099411A41F28830814256D8306880073D
:1014C000F4D42FB1DBF8001021F08051CBF80010DC
:1014D000A069C8B33D49091D0968C1F3810102290A
:1014E0004AD00228504607D0C8F8600000E03CE02F
:1014F000FFF730FD04463BE04746C8F86000FFF7C1
:1015000029FD064605E000BFFFF724FD801B0228E9
:101510002BD828688001F7D4D4E907010843A16AD1
:101520002E4A490802EB0141626A41EA82110843EE
:1015300094F82C1040EA0161C9F8001001203866C7
:10154000FFF708FD044606E03EE000BFFFF702FD9E
:10155000001B022809D828688001F7D534E000BFB5
:10156000FFF7F8FC001B022802D90320BDE8F88F22
:1015700028688001F4D427E00128F7D0D9F80000CA
:10158000E26900F4800191421CD1226A00F03F011F
:10159000914217D147F6C071626A0140B1EB821FD8
:1015A00010D1A26A4FF0FF3300F4403103EB520236
:1015B000B1EB024F06D194F82C1000F07060B0EB44
:1015C000016F01D00120D1E70020CFE704380240AD
:1015D00000004742800E4742007000400000FFFFBD
:1015E00010B5401EB0F1807F01D3012010BD4FF037
:1015F000E02460610F21601701F0F6F90020A0617E
:1016000007202061002010BD70B5044690F83C0012
:1016100000260D4601280FD0012084F83C006AB155
:10162000042A1DD0082A2FD00C2A3FD001260020E2
:1016300084F83C00304670BD022070BD206800F088
:1016400089FC2068816941F0080181612068816915
:1016500021F004018161206881692A69114311E048
:10166000206800F0A7FC2068816941F40061816175
:101670002068816921F480618161206881692A691B
:1016800041EA02218161D2E7206800F0C9FC2068AC
:10169000C16941F00801C1612068C16921F00401FC
:1016A000C1612068C1692A69114311E0206800F016
:1016B000EBFC2068C16941F40061C1612068C16927
:1016C00021F48061C1612068C1692A6941EA02216F
:1016D000C161ACE710B5040003D094F83D0010B12F
:1016E00007E0012010BD002084F83C00204600F0F7
:1016F0001EF8022084F83D00211D206800F0B0FB98
:10170000012084F8460084F83E0084F83F0084F805
:10171000400084F8410084F8420084F8430084F8D3
:10172000440084F8450084F83D00002010BD704757
:1017300010B50446022249B104290ED0082913D05D
:1017400094F84100012816D0012010BD94F83E0005
:101750000128F9D184F83E200FE094F83F000128D9
:10176000F2D184F83F2008E094F840000128EBD142
:1017700084F8402001E084F841200122206800F034
:10178000DBFB16492068164A884201D0904203D1FB
:10179000436C43F4004343642068884213D0B0F1A3
:1017A000804F10D00F4988420DD00F4988420AD08F
:1017B0000E49884207D0904205D00D49884202D098
:1017C0000C49884204D1816801F00701062903D041
:1017D000016841F001010160002010BD00000140DE
:1017E000000401400004004000080040000C0040DC
:1017F000004001400018004070B5040004D094F887
:101800004100002510B106E0012070BD84F8405071
:10181000204600F023F8242084F841002068C168A5
:1018200021F40051C160204600F026FE20680169C5
:1018300021F4904101612068416921F02A01416150
:101840002068C16841F40051C1606564202084F8BB
:10185000410084F842006563002070BD10B586B079
:10186000044614216846FEF760FF14492068884248
:1018700021D113480021026842F010020260006882
:1018800000F0100005900E481438026842F0010282
:101890000260006800F0010005904FF4C060009005
:1018A0000220CDE90101032003900720049069463E
:1018B0000448FFF745FA06B010BD000000100140D3
:1018C0004438024000000240FEE700002DE9F041EC
:1018D00086B014216846FEF728FF404800240168BE
:1018E00041F080010160016801F08001059101680B
:1018F00041F001010160016801F0010105910168F9
:1019000041F004010160016801F0040105910168E2
:1019100041F0020101600068314E00F002000590C4
:1019200000220C213046FFF710FB2E4F0022202111
:101930003846FFF70AFBDFF8B0800022042140465A
:10194000FFF703FB01254FF48810CDE9005002207A
:10195000029069463046FFF7F3F9122000904FF4E9
:101960000410CDE9010569463046FFF7E9F90C207E
:101970000090CDE90154694630460394FFF7E0F941
:1019800020200090CDE90154694638460394FFF7C2
:10199000D7F904200090CDE90154694640460394EC
:1019A000FFF7CEF9002211460620FFF741FB062083
:1019B000FFF730FB002211460720FFF739FB072015
:1019C000FFF728FB002211460A20FFF731FB0A200F
:1019D000FFF720FB06B0BDE8F08100003038024080
:1019E0000000024000080240000402400C4810B50C
:1019F0000A4901604FF4E1314160002181600C220D
:101A0000C160C0E904128161C161FFF7F5FE0028E1
:101A100003D0BDE81040FFF76BB910BD00100140C6
:101A20008C000020FEE7FEE710B54FF4806103480C
:101A3000FEF759FEBDE8104000F094B8B43D002018
:101A400030B585B014216846FEF76FFE4148016845
:101A500041F002010160016841F00201016080155E
:101A6000009011200124CDE9010403203A4D039098
:101A700069462846FFF764F96002009069462846E7
:101A8000FFF75EF93549364801E08168491E8160FB
:101A900081680029F9D1AE2001F048FA002001F058
:101AA00045FA102001F042FA402001F03FFA81206F
:101AB00001F03CFACF2001F039FAA12001F036FA0A
:101AC000C82001F033FAA62001F030FAA82001F076
:101AD0002DFA3F2001F02AFAD32001F027FA002046
:101AE00001F024FAD52001F021FA802001F01EFA3D
:101AF000D92001F01BFAF12001F018FADA2001F0E8
:101B000015FA122001F012FADB2001F00FFA402042
:101B100001F00CFA202001F009FA022001F006FA87
:101B20008D2001F003FA142001F000FAA42001F046
:101B3000FDF9A62001F0FAF9FFF776FFAF2001F0DA
:101B4000F5F907488021103004710180402141805F
:101B500005B030BD3038024000040240502D19005D
:101B60002C00002070B5164E002400BF04F1B00018
:101B7000C0B201F0DBF9002001F0D8F9102001F02B
:101B8000D5F901F099F9782001F054F901F0BAF98A
:101B9000402001F04FF901F0B5F9002506EBC50032
:101BA000005D01F047F901F0ADF96D1CEDB2802D3B
:101BB000F4D301F099F9641CE4B2082CD6D370BDBB
:101BC000B43D00202DE9F047DFF87C8005461C4637
:101BD00098F8040016460F46002833D0A9460C2C6E
:101BE00029D0102C27D0182C25D0202C23D0182415
:101BF00021E000BFB8F80010091BA94202DA391928
:101C00004D468FB2B8F80200001BB8421ADB7F2A9B
:101C1000234608D23946284600F008FF05EB540059
:101C200085B2761C07E032463946284600F06EFF42
:101C3000281985B2B61C3278002ADBD1BDE8F047FE
:101C4000FFF790BFBDE8F0873C0000207047704769
:101C500010B58EB0142107A8FEF767FD1C21684659
:101C6000FEF763FD24480024016841F00101016092
:101C7000006800F001000C901F481038016841F026
:101C800001010160006807A900F001000C900C2020
:101C900007900220CDE908040120CDE90A40174849
:101CA000FFF74EF816484FF0804101605321C0E91C
:101CB000011444F61F61C0E903148461FFF70AFDB3
:101CC000602000904FF4FA70CDE9010408226946C3
:101CD0000B480494FFF798FC0C2269460848FFF76C
:101CE00093FC08210648FFF723FD0C210448FFF769
:101CF0001FFD0EB010BD0000403802400000024041
:101D0000440000205A2900D95A214FF47A7211FB5D
:101D100002F15A22B1FBF2F1084A01F5FA71126898
:101D200028B1042805D0082805D0116470475163F4
:101D3000704791637047D1637047000044000020F2
:101D4000FFF70EB930B593B030216846FEF7EDFCD1
:101D500014210CA8FEF7E9FC1D480025016841F09C
:101D600080510160006800F08050119019480168AE
:101D700041F4804101600068022400F48040119029
:101D800001200090000401908001CDE9064008AADE
:101D90000420A82182E813000B906846FFF76AFA36
:101DA00008B172B6FEE70CA90F2081E831004FF4AC
:101DB000A0500F904FF48050109005210CA8FFF711
:101DC00069F9002801D072B6FEE713B030BD0000FB
:101DD000403802400070004070B5194C2068194A24
:101DE00010F00C01184804D05510042903D008291C
:101DF00003D002601BE0056019E01149091F0B6860
:101E0000C3F380560B6803F03F0316B1B5FBF3F242
:101E100001E0B2FBF3F20B680968C3F388135A437D
:101E2000C1F30141491C4900B2FBF1F10160216895
:101E3000064AC1F30311515C0268CA40026070BDDA
:101E4000083802400024F40014000020642F000829
:101E50000248016841F470010160704788ED00E0BC
:101E6000F0B50268294C2A4D2A4E2B4F2B4B4FF0D0
:101E7000804CA04209D0604507D0A84205D0B042AE
:101E800003D0B84201D0984204D122F0700E4A68C3
:101E900042EA0E02A0421BD0604519D0A84217D0DA
:101EA000B04215D0B84213D0984211D01C4DA84270
:101EB0000ED01C4DA8420BD01B4DA84208D01B4D84
:101EC000A84205D01A4DA84202D01A4DA84203D10B
:101ED00022F44075CA682A434D6922F080022A43E1
:101EE00002608A68C2620A688262A04201D0984297
:101EF00001D109690163012141610169C90703D069
:101F0000016921F001010161F0BD00000000014004
:101F10000004004000080040000C004000040140A4
:101F200000400140004401400048014000180040CA
:101F3000001C00400020004010B501F01F030121EB
:101F4000046A99408C430462016A9A401143016219
:101F500010BD0000F0B5036A026A22F001020262BD
:101F600042688469124E24F073050C682C4323F0F8
:101F700002058B682B430D4DA84201D0B04205D11C
:101F800023F00807CB683B4323F00403A84201D0A9
:101F9000B04205D14D6922F4407215438A692A4343
:101FA00042608461496841630362F0BD0000014002
:101FB00000040140F0B5026A036A23F010030362D3
:101FC000436884690D6824F4E64444EA05248D6876
:101FD00022F0200242EA05120F4D104EA84201D015
:101FE000B04206D1CF6822F0800242EA071222F006
:101FF0004002A84201D0B04207D14D6923F44063AA
:1020000043EA85038D6943EA850343608461496837
:1020100081630262F0BD0000000001400004014045
:10202000F0B5026A036A23F4807303624368C469EB
:1020300022F4007224F073050C68124E2C438D6854
:1020400042EA05220E4DA84201D0B04206D1CF6827
:1020500022F4006242EA072222F48062A84201D000
:10206000B04207D14D6923F4405343EA05138D690B
:1020700043EA05134360C4614968C1630262F0BD6D
:10208000000001400004014030B5046A026A22F4F5
:10209000805202624268C3690D6823F4E64343EA52
:1020A00005238D6824F4005444EA0534084DA84201
:1020B00002D0084DA84204D14D6922F4804242EA80
:1020C00085124260C36149680164046230BD00004A
:1020D0000000014000040140F0B506464C4885B0C0
:1020E000016841F01001016049481438016841F06D
:1020F00001010160474C0025E56014216846FEF7A8
:1021000014FB4FF4C0600090022001900120029067
:10211000032003900720049069463F48FEF710FE15
:10212000012211462520FEF783FF2520FEF772FFCE
:10213000FFF752FE394F3868400800EE100A3001B0
:10214000B8EE401A00EE100AB8EE400AC1EE000ADE
:10215000BCEEE00A10EE100A80B200EE100AB8EEF3
:10216000400A30EEC00AF3EE000A20EE200ABCEE70
:10217000C00A10EE101A89B241EA0010A060E560B2
:10218000E06840F00400E060E06840F00800E060D3
:10219000E068E060E068E060E068E0602561206998
:1021A00020F4405020616561606920F0400060616A
:1021B000606920F080006061E06820F08000E060ED
:1021C000E06840F02000E060E06840F01000E0606F
:1021D0006FF0F0002060E06840F40050E0601049CB
:1021E000A1F5A350416000F5E35181600DA0FEF719
:1021F000BDF8FFF7F1FD1A493868B0FBF1F119A0FD
:10220000FEF7B4F831462048FEF7B0F805B0F0BD4F
:102210004438024000100140000002401400002039
:10222000341500200D0D0D3D3D3D3D3D3D3D3D3DF9
:102230003D3D202053544D333246343037564520EF
:10224000CDE2C9E820B3F5CABCBBAFB1A8B8E6205F
:102250003D3D3D3D3D3D3D3D3D3D3D0D00000000D2
:1022600040420F00CFB5CDB3CAB1D6D3C6B5C2CAAE
:102270002020202020202020202020202025642015
:102280004D487A0D0000000030630008F0B50E4B99
:1022900000224FF4006C16469D680AE09C89875C1A
:1022A0002F55641CA4B29C81644500D19E81521CB0
:1022B00092B28A42F2D30548C168090603D4C168C4
:1022C00041F08001C160F0BDD40000200010014049
:1022D0002DE9F047264D2868264C00064FF00007F0
:1022E00005F104064FF4007218D521480C3001683E
:1022F000090613D5E189A3685B5C3360491C89B288
:10230000E181914200D1E781E189A289914203D123
:10231000016821F080010160BDE8F0872868DFF8DE
:10232000588080060ED5B8F80600904203D313A05B
:10233000FEF71CF819E032681B4B1A54401CA8F831
:102340000600E9E72868C006E6D5278091461649C9
:102350006068FEF783F9B8F806102180A8F80670C7
:1023600049461148FEF7E1F928683068D4E70000D3
:10237000004C00400401002018000020BEAFB8E669
:10238000A3BA5541525434B5A5D6A1BDD3CAD5C1BF
:10239000BFA3ACD2D1B3ACB3F6BDD3CAD5BBBAB42C
:1023A000E6B4F3D0A10D2100340F00202DE9F04157
:1023B000224C2068224D00064FF000074FF40071B8
:1023C00016D5E068000613D5E889AA68125C626039
:1023D000401C80B2E881884200D1EF81E889A98958
:1023E000884203D1E06820F08000E060BDE8F08121
:1023F0002068144E80060CD53089884203D312A081
:10240000FDF7B4FF17E061681A4A1154401C30818F
:10241000ECE72068C006E9D52F8088460A461549B2
:102420006868FEF71BF930892880378141461148DA
:10243000FEF77BF920686068D8E700000050004094
:102440001401002018000020BEAFB8E6A3BA554121
:10245000525435B5A5D6A1BDD3CAD5C1BFA3ACD200
:10246000D1B3ACB3F6BDD3CAD5BBBAB4E6B4F3D0DE
:10247000A10D21003411002070B5044600680169E7
:10248000E26821F44051114301612169A068E269C9
:1024900008436169114308432168CA6849F20C6323
:1024A0009A430243CA6020684169A26921F44071DD
:1024B0001143416131492068884202D03049884245
:1024C00002D1FEF797FE01E0FEF784FEE2690023E9
:1024D000192164253226B2F5004F626828D0A0FB8E
:1024E0000101930F9200FDF7CAFE0146B0FBF5F023
:1024F0006FF01802504301EB800006EB0010B0FBB8
:10250000F5F000F0F002B1FBF5F002EB0012B1FBC8
:10251000F5F06FF01803584301EB800006EB001054
:10252000B0FBF5F000F00F0021681044886070BD2A
:10253000A0FB010192185B41FDF7A1FE0146B0FB33
:10254000F5F00201B1FBF5F06FF01803584301EB11
:10255000800006EBC000B0FBF5F000F0F80002EBE5
:102560004002B1FBF5F0584301EB800006EBC000E0
:10257000B0FBF5F000F00700D6E7000000100140C6
:10258000001401402DE9F041234C2068234D000642
:102590004FF000074FF4006116D5E068000613D530
:1025A000E889AA68125C6260401C80B2E8818842B7
:1025B00000D1EF81E889A989884203D1E06820F041
:1025C0008000E060BDE8F0812068154E80060DD5E2
:1025D0003088884203D313A0FDF7C8FE1AE0616873
:1025E0000E4A60321154401C3080EBE72068C00670
:1025F000E8D588460A4609492F8060316868FEF7A9
:102600002DF8308828800548378041466030FEF735
:102610008CF820686068D5E700100140D4000020E5
:1026200018000020BEAFB8E6A3BA5541525431B5E8
:10263000A5D6A1BDD3CAD5C1BFA3ACD2D1B3ACB3CB
:10264000F6BDD3CAD5BBBAB4E6B4F3D0A10D210010
:102650002DE9F047264D2868264C00064FF000076C
:1026600005F104064FF4007218D521480C300168BA
:10267000090613D5E189A3685B5C3360491C89B204
:10268000E181914200D1E781E189A289914203D1A0
:10269000016821F080010160BDE8F0872868DFF85B
:1026A000588080060ED5B8F80200904203D313A0DC
:1026B000FDF75CFE19E032681B4B1A54401CA8F869
:1026C0000200E9E72868C006E6D52780914616494A
:1026D0006068FDF7C3FFB8F802102180A8F8027007
:1026E00049461148FEF721F828683068D4E7000011
:1026F00000440040E400002018000020BEAFB8E60F
:10270000A3BA5541525432B5A5D6A1BDD3CAD5C13D
:10271000BFA3ACD2D1B3ACB3F6BDD3CAD5BBBAB4A8
:10272000E6B4F3D0A10D2100340900202DE9F047D3
:10273000264D2868264C00064FF0000705F10406D8
:102740004FF4806218D521480C300168090613D572
:10275000E189A3685B5C3360491C89B2E1819142E5
:1027600000D1E781E189A289914203D1016821F07A
:1027700080010160BDE8F0872868DFF85880800696
:102780000ED5B8F80400904203D313A0FDF7EEFD78
:1027900019E032681B4B1A54401CA8F80400E9E702
:1027A0002868C006E6D52780914616496068FDF77F
:1027B00055FFB8F804102180A8F804704946114864
:1027C000FDF7B3FF28683068D4E7000000480040F8
:1027D000F400002018000020BEAFB8E6A3BA5541AF
:1027E000525433B5A5D6A1BDD3CAD5C1BFA3ACD26F
:1027F000D1B3ACB3F6BDD3CAD5BBBAB4E6B4F3D04B
:10280000A10D2100340B00202DE9F047264D28684A
:10281000264C00064FF0000705F104064FF4007245
:1028200018D521480C300168090613D5E189A36841
:102830005B5C3360491C89B2E181914200D1E78140
:10284000E189A289914203D1016821F080010160F0
:10285000BDE8F0872868DFF8588080060ED5B8F804
:102860000A00904203D313A0FDF780FD19E03268FF
:102870001B4B1A54401CA8F80A00E9E72868C00658
:10288000E6D52780914616496068FDF7E7FEB8F85F
:102890000A102180A8F80A7049461148FDF745FF43
:1028A00028683068D4E700000014014024010020AB
:1028B00018000020BEAFB8E6A3BA5541525436B551
:1028C000A5D6A1BDD3CAD5C1BFA3ACD2D1B3ACB339
:1028D000F6BDD3CAD5BBBAB4E6B4F3D0A10D21007E
:1028E00034130020FEE700002DE9F04104461348B0
:1028F00015460F46007800281DD0114E4FF00050AD
:102900003060032000F0BAFAC4F3074000F0B6FAD2
:10291000C4F3072000F0B2FAE0B200F0AFFA0024EE
:1029200004E0FF2000F0AAFA3855641CAC42F8D34A
:102930004FF400503060BDE8F0810000B441002049
:102940001808024030B413464A0700D0012202EBB7
:10295000D10212FB01F2D4B202784078812A09D365
:10296000402807D3FF2805D0FF2A03D07F280DD2A7
:1029700040380CE00020014604E000BF401C03F892
:10298000011BC0B2A042F9D330BC70474138813A34
:10299000D2B2C2EB4215C0B205EB821200EB42008C
:1029A00060430C290CD010290FD0182911D02029F0
:1029B000EAD11946094B2246184430BCFFF794BFB0
:1029C0002246194600F52000F7E719462246044B37
:1029D000F2E719462246034BEEE7000000C2CE00A4
:1029E00060C4A800E074B4000907090E002804DBE5
:1029F00000F1E02080F80014704700F00F0000F1B3
:102A0000E02080F8141D704730380A2801D20120D8
:102A1000704700207047704703480F21C160C168AC
:102A20004A1EC260FBD270472C0000202DE9F05FE7
:102A3000314C80461E460D46A180580700D001202B
:102A400000EBD600710810FB01F0203ADFF8A8A0D7
:102A5000607002F0FF0B00270AF1100A47E00C2E0D
:102A600014D0102E16D0182E18D0202E42D1234963
:102A700001EB8B104FF00009C05D20702078E9B2A7
:102A8000000608F0FF000FD501220EE00BEB4B0013
:102A90001B4906E01B4901EB0B10EBE71A490BEB56
:102AA000CB0001EB8000E5E7002200F079F8207808
:102AB0006D1C40002070BAF80200ADB2A84219D9CE
:102AC000A088281AB04209D108F10100BAF8001014
:102AD000A5881FFA80F841450CD906E009F10100EC
:102AE00000F0FF09B9F1080FC8D37F1CFFB260786E
:102AF0008742B4D3BDE8F09F2C0000205C4B000857
:102B00009C33000810380008003E00082DE9F05FF3
:102B10001F46824613460C46780700D0012000EB82
:102B2000D70010FB07F11C4D1C4A1846E9703946C6
:102B3000FFF708FFEC800026A14695F803B027E0D8
:102B400016484FF00008805DA870A878E1B2000632
:102B50000AF0FF0001D5012200E0002200F020F879
:102B6000A878641C4000A870A4B2A4EB0900B84285
:102B700005D10AF101004C461FFA80FA06E008F17F
:102B8000010000F0FF08B8F1080FDED3761CF6B2A2
:102B90005E45D5D3BDE8F09F2C000020343D0020D9
:102BA00030B5CC0801F0070301259D40EBB2064D7E
:102BB00005EBC005C808285C0AB1184302E063EAC7
:102BC0000000C043285530BDB43D002003B50121AD
:102BD0006846FFF75BFB00980CBD000088B04FF023
:102BE000000B5D468DF804B08DF808B05F46FF26F7
:102BF000D846FEF7BDF9FFF7A5F8FEF767FEFEF72A
:102C0000F5FE4FF4E130FFF767FAFEF719FFFEF724
:102C10000BFF142103A8FDF788FD554C206840F0F8
:102C200001002060206803A900F00100009002204C
:102C3000CDE9030505954F480695FEF781F8142167
:102C400003A8FDF772FD206840F0040020602068B2
:102C5000494C00F0040000901020CDE903050595D3
:102C600003A920460695FEF76BF8FEF7F1FF00205A
:102C7000FEF723F8FDF76EFF00282ED03FA000BF1F
:102C8000FDF774FB4FEA040A4FF0000902213948AE
:102C9000FEF74EF9012823D0002410215046FEF7FC
:102CA00047F9F8B100253A48017861B180F800B0E1
:102CB000B8F1000F18D000208046FDF7FEFF35A1C7
:102CC00036A0FDF753FB27B102A901A8FDF7A0FF2D
:102CD00080B1002C21D034A220E0012735A0CFE71D
:102CE0000124DAE70125DEE701208046FDF7E5FF54
:102CF00034A1E5E74FF001090CB12BA000E033A0AF
:102D000000900DB133A300E033A39DF808209DF897
:102D1000041033A0FDF72AFB07E02CA20DB12DA172
:102D200000E02DA137A0FDF721FB54B100222021A6
:102D30005046FEF70AF9B44209D0260003D01AA182
:102D400002E00122F3E721A136A0FDF70FFB2B469D
:102D50004A469DF808109DF80400FDF721FE042165
:102D60003348FEF7EAF84FF47A70FDF7C3FF8BE7BC
:102D7000303802400000024000080240444854310C
:102D80003120696E6974206661696C0D0A0000006B
:102D900000000020434C4F5345000000444F4F5269
:102DA0003D25730D0A0000004445544543544544F5
:102DB00000000000444854313120696E6974206F6E
:102DC0006B0D0A004F50454E0000000049444C4531
:102DD0000000000042414400474F4F440000000003
:102DE00054454D503D2575432048554D493D257569
:102DF00025252041513D2573205049523D25730D15
:102E00000A00000044485431312072656164206634
:102E100061696C2041513D2573205049523D257315
:102E20000D0A00005049522025730D0A00000000D1
:102E3000000402402DE9F0470F4D002406464FF4F0
:102E400000794FF0007AAF154FF08078300601D549
:102E5000484600E050462860FFF7DEFD2F60FFF790
:102E6000DBFDC5F800807006641C060EE4B2082C79
:102E7000ECD3BDE8F08700001804024010B5002133
:102E80004FF47A730B4A03E0491C89B2994209D87E
:102E90009468A407F8D5D060002005E0401C80B2FB
:102EA000984201D9002010BD9168C907F6D0D068BA
:102EB000C0B210BD0030014010B50A4C4FF4007094
:102EC000206040102060FFF7A7FD4FF000702060E9
:102ED000FFF7A2FD4FF080702060BDE81040FFF7C3
:102EE0009BBD00001804024010B5054C4FF0007067
:102EF000206040142060FFF78FFD6015206010BD3A
:102F00001804024010B5084C4FF400702060FFF721
:102F100083FDA0152060FFF77FFD4FF080702060DB
:102F2000BDE81040FFF778BD1804024010B5044614
:102F3000FFF7C2FF7820FFF77DFFFFF7E3FF0020D8
:102F4000FFF778FFFFF7DEFF2046FFF773FFFFF77D
:102F5000D9FFBDE81040FFF7C7BF4FF04070E1EE6A
:102F6000100A704700000000000000000102030486
:102F7000060708090000000001020304224400C003
:102F80005FD555D55FC000000402090F080F080F78
:102F9000080F080000FE0A8ABEAAABAABE8A0A0071
:102FA00008070008090A04040A090800482A987F4B
:102FB000284A10EF08F80800090B05050B00080562
:102FC000020508008888FF4800FEAAAAFAAAAE00F7
:102FD00000080F0806010F0404040F001060028CA3
:102FE0000000FE9292929292FE00000004047E0184
:102FF000407E42427E427E42427E40001060028C11
:1030000000FE929292929292FE00000004047E01D1
:103010004448507F40407F50484440000000FC241A
:103020002424FC252624FC242424040040308F8002
:10303000844C55252525554C8080800000000414C3
:1030400064040CB40202423302000000404121112A
:10305000090503FF0305091121414000201008FC68
:1030600057545455FE5454545404000044442427E7
:10307000150D05FF050D15252545440000800004AC
:10308000081800C000F84848484848484848FC002C
:10309000000000000000010780780700E02F2424D2
:1030A000E42424E424242FE0200000000001013F58
:1030B0003F2020203F2020203F20203F2020203F75
:1030C0002030200000000000F01010101030D0124E
:1030D0001C1C1010F050101098100000000000C0D0
:1030E000FF0101414141DF49494949495FC141016E
:1030F000010100000020180700404040202011126C
:103100000C080C12113020206020200000004044E8
:103110007850C0FE4060504C4080F05E444040C05B
:10312000404000000050484844C3E17F4141C6444C
:103130000C030FF08080FC1F0000000000404020C6
:103140002213120C0C064D382010180C07070C180F
:10315000303000000080808080FC8880C080F8F8DB
:1031600088888888888888F8F80000000040C04077
:1031700020FF10080884FF0988888888FF888889CC
:103180008908000000002020607F20100C03000050
:103190007F1010101010107F3F0000000000000092
:1031A0000818706000008000F8F010101010101067
:1031B00010101010F81000000000000000000818A7
:1031C00070200080700F0000FFFF424242424242E6
:1031D00042424242FF000000000000000000404068
:1031E000C0E0FC070000FCF8090808F8F808080827
:1031F000F8F8080808F8FC080000000000000000CB
:103200003F3F002020203F3F2020203F3F20202024
:103210003F3F2020203F3F203030000000000000D2
:1032200000E0C0404040404040C0404458785040DA
:1032300040C040404040607060400000000000001E
:1032400000FFFF080808080808FFFF090808080829
:1032500008FFFF0908080C0C08000000000000002F
:10326000F07F030000000808081B6BC90909090961
:1032700089EB7B3C18000000000000000040300E8D
:103280000340404040202020101018080D07060F72
:103290000D181810303030703000000000000000B1
:1032A0001070E04000FCFC0800C06030100000E03E
:1032B0007C180800000000000000000000000282EE
:1032C0008242221A0EFFFF0A1B327203C2321EFF15
:1032D0000202020202FE3E02030200000000090890
:1032E0000808C8F89E0F0A08C8F83C09000000004A
:1032F0001FF8C0F03F070000000000000000202081
:10330000201010080C0507030342462E1010080C6D
:1033100006030103060C1C3810101000000000000A
:10332000000004F8080000000000F8080808080879
:10333000080808080808FCF8000000000002020263
:10334000020202FF028242432280FF828282828244
:1033500082FAFA82828287C7C080000000001C0CBB
:10336000060603FF01000000E07F0700E0202020A8
:10337000203F3F202020F0E000000000000008086F
:103380001030381F20100C07010000007F080808CB
:103390000808080808083F3F00000000000000007F
:1033A0000000000000000000000000003F4000009E
:1033B000000000000000300040003000400000002D
:1033C00009000BC03D000BC03D00090018C024409F
:1033D0007FE0224031800000180024C01B000D80D7
:1033E0003240018003801C4027401C800740004081
:1033F000100060000000000000000000000000005D
:1034000000001F80204040200000402020401F80FE
:1034100000000000090006001F80060009000000EF
:10342000040004003F80040004000000001000605D
:10343000000000000000000004000400040004007C
:103440000400000000000040000000000000000038
:10345000002001C006003800400000001F8020400E
:10346000204020401F800000000010403FC000406E
:103470000000000018C021402240244018400000F5
:1034800010802040244024401B80000002000D00DA
:1034900011003FC0014000003C80244024402440F3
:1034A000238000001F80244024403440038000001B
:1034B0003000200027C03800200000001B8024407E
:1034C000244024401B8000001C0022C022402240D7
:1034D0001F80000000000000084000000000000005
:1034E0000000000004600000000000000000040074
:1034F0000A0011002080404009000900090009006D
:103500000900000000004040208011000A00040073
:103510001800200023402400180000001F802040D5
:10352000274029401F400000004007C039000F001D
:1035300001C0004020403FC0244024401B800000C8
:103540001F802040204020403080000020403FC0AD
:10355000204020401F80000020403FC024402E40DB
:1035600030C0000020403FC024402E00300000004A
:103570000F001080204022403380020020403FC0D6
:10358000040004003FC02040204020403FC02040B5
:10359000204000000060202020203FC020002000AC
:1035A00020403FC024400B0030C0204020403FC09E
:1035B00020400040004000C03FC03C0003C03C0031
:1035C0003FC0000020403FC00C4023003FC020000F
:1035D0001F802040204020401F80000020403FC02E
:1035E00024402400180000001F802140214020E0DA
:1035F0001FA0000020403FC02440260019C000400A
:1036000018C0244024402240318000003000204077
:103610003FC020403000000020003F8000400040BC
:103620003F80200020003E0001C00700380020003D
:10363000380007C03C0007C038000000204039C0F7
:10364000060039C0204000002000384007C0384044
:1036500020000000304021C02640384020C000003B
:10366000000000007FE040204020000000007000CB
:103670000C000380004000000000402040207FE05C
:1036800000000000000020004000200000000000BA
:1036900000100010001000100010001000000000CA
:1036A00040000000000000000000028005400540CE
:1036B00003C0004020003FC00440044003800000DD
:1036C0000000038004400440064000000000038026
:1036D000044024403FC000400000038005400540F6
:1036E00003400000000004401FC02440244020008C
:1036F000000002E0055005500650042020403FC065
:103700000440040003C000400000044027C0004003
:103710000000000000100010041027E0000000006E
:1037200020403FC00140070004C00440204020402A
:103730003FC000400040000007C0040007C0040074
:1037400003C00000044007C00440040003C0004060
:10375000000003800440044003800000041007F0D0
:103760000450044003800000000003800440045023
:1037700007F00010044007C00240040004000000ED
:10378000000006400540054004C0000000000400A1
:103790001F800440004000000400078000400440F7
:1037A00007C000400400070004C0018006000400B8
:1037B000060001C0070001C006000000044006C06A
:1037C000010006C0044000000410071004E001805E
:1037D000060004000000044005C00640044000004C
:1037E0000000000004007BE040200000000000001A
:1037F0000000FFF000000000000040207BE004001B
:103800000000000040008000400020002000400038
:1038100000000000000000000000000000000000A8
:103820000000000000001FCC000C000000000000A1
:103830000000080030006000080030006000000058
:10384000022003FC1E20022003FC1E200220000098
:1038500000000E1811043FFF10840C7800000000D7
:103860000F0010840F3800C007781884007800001B
:1038700000780F8410C411240E9800E4008400081E
:103880000800680070000000000000000000000058
:1038900000000000000007E01818200440020000AB
:1038A000000040022004181807E00000000000009B
:1038B0000240024001800FF00180024002400000FF
:1038C0000080008000800FF80080008000800000F1
:1038D0000001000D000E00000000000000000000CC
:1038E0000000008000800080008000800080008058
:1038F0000000000C000C00000000000000000000B0
:10390000000000060018006001800600180020007A
:10391000000007F0080810041004080807F0000071
:103920000000080408041FFC00040004000000005C
:1039300000000E0C10141024104411840E0C000012
:1039400000000C1810041104110412880C700000FF
:10395000000000E00320042408241FFC00240000D1
:1039600000001F98108411041104108810700000CA
:10397000000007F008881104110418880070000086
:1039800000001C00100010FC13001C0010000000C0
:1039900000000E3811441084108411440E380000C9
:1039A00000000700088C10441044088807F000004D
:1039B000000000000000030C030C000000000000E9
:1039C00000000000000101060000000000000000EF
:1039D00000000080014002200410080810040000CC
:1039E00002200220022002200220022002200000E9
:1039F00000001004080804100220014000800000AC
:103A000000000E001200100C106C10800F0000005F
:103A100003E00C1813E4142417C4082807D000008E
:103A20000004003C03C41C40074000E4001C0004E8
:103A300010041FFC1104110411040E880070000012
:103A400003E00C1810041004100410081C100000EF
:103A500010041FFC100410041004080807F00000F4
:103A600010041FFC1104110417C4100408180000EE
:103A700010041FFC1104110017C010000800000002
:103A800003E00C181004100410441C7800400000DF
:103A900010041FFC10840080008010841FFC1004A0
:103AA0000000100410041FFC1004100400000000AB
:103AB00000030001100110011FFE100010000000A3
:103AC00010041FFC110403801464181C100400006F
:103AD00010041FFC1004000400040004000C00008B
:103AE00010041FFC1F0000FC1F001FFC100400003E
:103AF00010041FFC0C04030000E010181FFC100051
:103B000007F00808100410041004080807F000006B
:103B100010041FFC10841080108010800F00000023
:103B200007F0081810241024101C080A07F20000DF
:103B300010041FFC1104110011C011300E0C000400
:103B400000000E1C11041084108410441C38000066
:103B50001800100010041FFC1004100018000000D2
:103B600010001FF810040004000410041FF81000D7
:103B700010001E0011E0001C007013801C001000DB
:103B80001FC0103C00E01F0000E0103C1FC0000000
:103B90001004180C163401C001C01634180C10049F
:103BA00010001C00130400FC13041C001000000093
:103BB0000804101C1064108413041C041018000066
:103BC0000000000000007FFE4002400240020000B2
:103BD000000030000C0003800060001C00030000A7
:103BE00000004002400240027FFE00000000000092
:103BF00000000000200040004000400020000000C5
:103C000000010001000100010001000100010001AC
:103C10000000400040002000000000000000000004
:103C200000000098012401440144014400FC000408
:103C300010001FFC008801040104008800700000CF
:103C400000000070008801040104010400880000E5
:103C50000000007000880104010411081FFC00042A
:103C6000000000F8014401440144014400C8000080
:103C70000000010401040FFC1104110411001800DC
:103C8000000000D601290129012901C9010600000F
:103C900010041FFC008401000100010400FC00046A
:103CA00000000104190419FC0004000400000000D5
:103CB0000000000300010101190119FE00000000CD
:103CC00010041FFC0024004001B4010C010400009A
:103CD0000000100410041FFC000400040000000099
:103CE000010401FC0104010001FC0104010000FCCD
:103CF000010401FC008401000100010400FC000437
:103D0000000000F8010401040104010400F80000AF
:103D1000010101FF0085010401040088007000001A
:103D200000000070008801040104010501FF00018A
:103D30000104010401FC0084010401000180000071
:103D4000000000CC0124012401240124019800007A
:103D500000000100010007F8010401040000000058
:103D6000010001F8000400040004010801FC000443
:103D7000010001800170000C001001600180010051
:103D800001F0010C003001C00030010C01F0010015
:103D900000000104018C00740170018C010400001A
:103DA000010101810171000E001801600180010014
:103DB00000000184010C013401440184010C000065
:103DC000000000000000000001003EFC4002400234
:103DD0000000000000000000FFFF000000000000E5
:103DE0000000400240023EFC010000000000000014
:103DF00000006000800080004000400020002000A3
:103E000000000000000000000000000000000000B2
:103E100000000000000000000000000000000000A2
:103E20000000000000000000000000000000000092
:103E30000000000F80380FFE380F803800000000AF
:103E40000000000000000000000000000000010071
:103E5000000600000C0000380000310000060000E1
:103E60000C000038000030000000000000000000DE
:103E700061800067F807F98000618000618000615F
:103E8000800061800067F807F98000618000000011
:103E900000000000000001C0E003E0F0063008046C
:103EA00018081FFFFE040E080787F00381E00000DA
:103EB0000000000001F000060C00040408060C706D
:103EC00001F9C0000E00003BE000EC1807080804F0
:103ED0000C180003E00000000001E00007F003F808
:103EE00018041C0804170807E1D003C0E00023B041
:103EF000003C080020080000100000000000000145
:103F000000003100003200001C0000000000000032
:103F100000000000000000000000000000000000A1
:103F20000000000000000000000000000000000091
:103F30007F0001FFC00780F00C0018100004200073
:103F4000020000000000002000021000040C001815
:103F50000780F001FFC0007F0000000000000000AB
:103F600000000000000000000000000042000066A9
:103F700000006600003C0000180003FFC0001800AD
:103F8000003C0000660000660000420000000000E7
:103F9000080000080000080000080000080001FFF9
:103FA000C000080000080000080000080000080029
:103FB00000000000000100003100003200001C0081
:103FC00000000000000000000000000000000000F1
:103FD00000000000000000000800000800000800C9
:103FE00000080000080000080000080000080000A9
:103FF00008000008000000000000000000000000B1
:104000003800003800003800000000000000000008
:1040100000000000000000000000000000000000A0
:10402000000600001C000070000180000E00003837
:104030000000C0000700001C00003000000000006D
:10404000000000007F8001FFE0038070060018047C
:10405000000804000806001803807001FFE0007FDC
:1040600080000000000000000000010008010008BE
:1040700001000803FFF807FFF8000008000008002F
:10408000000800000000000000000001C03802C06D
:1040900058040098040118040218040418061C1897
:1040A00003F81801E0F80000000000000000000123
:1040B000C0E003C0F004000804080804080806185B
:1040C0000803F41801E7F00001E000000000000020
:1040D000000000000300000D00001100006100005E
:1040E000810803010807FFF80FFFF800010800012D
:1040F000080000000000000000E007FCD0060808EF
:10410000061008061008061008061838060FF006F4
:1041100007C0000000000000000000003F8001FF19
:10412000E003843002081804100804100804100882
:10413000071810030FF00007C00000000000000087
:10414000000003C0000700000600000600F8060794
:10415000F806180006E00007000006000000000056
:1041600000000001E1E003F7F00634100418080431
:104170001808040C08040C0806161803F3F001C113
:10418000E000000000000000F80003FC30030638E7
:104190000402080402080402080404100308F001E1
:1041A000FFC0007F000000000000000000000000D1
:1041B0000000000000000000703800703800703807
:1041C00000000000000000000000000000000000EF
:1041D000000000000000000000000000301A003065
:1041E0001C000000000000000000000000000000B3
:1041F0000000000000000008000014000022000081
:1042000041000080800100400200200400100800EE
:104210000800000000000000210000210000210033
:1042200000210000210000210000210000210000E9
:104230002100002100000000000000000000080034
:1042400008040010020020010040008080004100AE
:10425000002200001400000800000000000000031D
:10426000C00004C000040000080038080F38080827
:10427000380810000C300007E00003C00000000008
:10428000000000003F8000FFE0038070020F100676
:10429000708804C088048308047F8802C0900301EA
:1042A0002000FE400000080000180001F8003E0851
:1042B00001C20007020007E20000FE00001FC80064
:1042C00001F800003800000804000807FFF807FFA5
:1042D000F804080804080804080804080806180870
:1042E00003F41801E7F00001E00000000000000006
:1042F0003F8001FFE0038070020018040008040002
:10430000080400080400100600200780C000000018
:1043100004000807FFF807FFF80400080400080479
:10432000000804001802001003807001FFE0007F05
:104330008000000004000807FFF807FFF8040808E1
:10434000040808040808040808043E0804000806D5
:10435000001801006000000004000807FFF807FFD4
:10436000F8040808040800040800040800043E00DB
:1043700006000006000001800000000000000000B0
:104380003F8001FFE003807006001804000804026B
:10439000080402080203F00783F000020000020094
:1043A00004000807FFF807FFF804080800080000E9
:1043B000080000080000080004080807FFF807FFCD
:1043C000F8040008000000000000040008040008D1
:1043D00004000807FFF807FFF804000804000804B9
:1043E00000080000000000000000000000060000BF
:1043F0000700000104000104000104000307FFFEA0
:1044000007FFFC040000040000040000040008078B
:10441000FFF807FFF8040C08001800003E0004C76E
:10442000800503C80600F8040038040018000008DE
:1044300004000807FFF807FFF80400080000080060
:104440000008000008000008000008000018000034
:104450006000000004000807FFF807800807FC0060
:10446000007FC00003F80007C0007800078008073D
:10447000FFF807FFF804000804000807FFF807002A
:104480000803C00000E000003800001E0000070024
:104490000001C00400F007FFF80400000000000065
:1044A0007F8001FFE003807006001804000804000C
:1044B0000806001803003001FFE0007F80000000C4
:1044C00004000807FFF807FFF804040804040004C8
:1044D0000400040400040400060C0003F80001F0CA
:1044E00000000000000000007F8001FFE0038070FA
:1044F0000600880400880400C806003C03003E0152
:10450000FFE6007F8400000004000807FFF807FFB3
:10451000F8040808040800040C00040F00040BC091
:104520000610F003F03801E0080000080000000168
:10453000E0F803F030063010041808041808040CE2
:1045400008040C080206180207F00781E0000000CA
:1045500001800006000004000004000004000807B9
:10456000FFF807FFF804000804000004000006003C
:104570000001800004000007FFE007FFF0040018BE
:1045800000000800000800000800000800000804FF
:10459000001007FFE004000004000006000007E030
:1045A0000007FE00041FE00001F80000380001E0F1
:1045B000043E0007C00006000004000004000007DD
:1045C000E00007FFC0041FF80007C007F80007FF5E
:1045D00080043FF80007C004F80007000004000052
:1045E00000000004000806001807C07805F1C800A4
:1045F0003E00001F800463E80780F80600180400EE
:104600000800000004000006000007800007E00822
:10461000047C08001FF80007F800180804E00807E9
:104620000000060000040000000000010008060071
:10463000380400F80403E8040F08047C0805F008B7
:1046400007C0080700180400600000000000000018
:1046500000000000000000000000003FFFFE2000FE
:1046600002200002200002200002200002000000C0
:1046700000000000000008000007000000C000006B
:1046800038000006000001C000003000000E0000ED
:1046900001000000000000000000200002200002D5
:1046A0002000022000022000023FFFFE0000000068
:1046B00000000000000000000000000000000000FA
:1046C0000008000010000030000020000030000052
:1046D00010000008000000000000000000000100C1
:1046E00000010000010000010000010000010000C5
:1046F00001000001000001000001000001000001B4
:104700000000000000000000002000002000001059
:104710000000100000000000000000000000000089
:10472000000000000000000000F00019F8001B1855
:10473000002208002608002408002410003FF8008A
:104740001FF800000800001800000004000007FF28
:10475000F80FFFF0001818001008002008002008CB
:10476000003018001FF0000FC00000000000000023
:1047700007C0001FF00018300020080020080020AB
:1047800008003C08001C1000006000000000000051
:104790000000000007C0001FF000381800200800CB
:1047A000200800200804101007FFF80FFFF0000099
:1047B000100000000000000000000007C0001FF013
:1047C00000123000221800220800220800320800DF
:1047D0001E10000E2000000000000000200000203D
:1047E0000800200801FFF803FFF80620080420084D
:1047F0000420080720000300000000000000000063
:10480000000E000E6E001FF30031B10020B1002039
:10481000B1003191001F13002E1E00200E00300049
:1048200000000004000807FFF80FFFF80010080060
:104830002000002000002008003FF8001FF80000C2
:104840000800000000000000000000200800200810
:10485000002008063FF8063FF800000800000800A6
:104860000008000000000000000000000000000040
:1048700003000003002001002001002003063FFE8A
:10488000063FFC00000000000000000000000004E3
:10489000000807FFF80FFFF8000188000300002F51
:1048A000C00038F800203800200800000800000090
:1048B00000000000000004000804000804000807CD
:1048C000FFF80FFFF80000080000080000080000D3
:1048D00000000000002008003FF8003FF80010082A
:1048E000002000003FF8003FF80010080020000002
:1048F0003FF8003FF8000008000000002008003FDB
:10490000F8003FF800100800100000200000200808
:10491000003FF8001FF80000080000000000000041
:1049200007C0000FF00018300030080020080020F9
:1049300008003008001830000FF00007C000000029
:10494000000000002001003FFF003FFF00101100A9
:104950002009002008002008003038001FF0000F58
:10496000C00000000000000007C0001FF000381861
:10497000002008002008002009001011001FFF007F
:104980003FFF000001000000002008002008002078
:1049900008003FF8003FF800080800100800200851
:1049A0000020000030000030000000000000000087
:1049B0000000000C78001E180033080023080021B6
:1049C000080021880021980030F0003860000000C5
:1049D00000000000200000200000200000FFF00385
:1049E000FFF8002008002008002008000030000028
:1049F00000000000000000002000003FF0007FF8F1
:104A0000000018000008000008002010003FF80017
:104A10007FF00000100000000000000020000030C7
:104A200000003C00003F800023F000007800007090
:104A3000002380003C000030000020000020000027
:104A40003C00003FE00023F80000E0002700003EAB
:104A500000003FE00021F80001E0003E00002000DF
:104A6000000000002008002008003838003E6800E0
:104A700027800003C8002CF80038380020180020D8
:104A800008000000000000002000003003003C018E
:104A9000003F830023EC000070002380003C0000F6
:104AA000200000200000000000000000000000388E
:104AB000080020380020F80023E8002F88003E0876
:104AC00000380800201800007000000000000000FE
:104AD00000000000000000000000000008000014BA
:104AE000001FF7FC3000062000020000000000005C
:104AF00000000000000000000000000000000000B6
:104B00000000FFFFFF0000000000000000000000A8
:104B1000000000000000000000002000023000063D
:104B20001FF7FC0014000008000000000000000057
:104B300000000000000000000000001800006000FD
:104B400000400000400000200000100000080000AD
:104B50000400000400000C00001000000000000031
:104B60000000000000000000000000000000000045
:104B70000000000000000000000000000000000035
:104B80000000000000000000000000000000000025
:104B90000000000000000000000000000000000015
:104BA0000000000000000000000000000000000005
:104BB0000000000007F000C007FFE1E007F001E09F
:104BC000000000C000000000000000000000000025
:104BD00000000000000000000000000000000000D5
:104BE000000000000020000001C00000078000005D
:104BF0001F0000001E0000001C20000001C000007B
:104C0000078000001F0000001E0000001C000000C4
:104C10000000000000000000000000000000000094
:104C200000180C0000180C0000180FE0001FFC001A
:104C300003F80C0000180C0000180C0000180C0001
:104C400000180C0000180FE0001FFC0003F80C0017
:104C500000180C0000180C0000000000000000000C
:104C60000000000000000780007807C000FC06403C
:104C7000010E002003070020020380200FFFFFFC2D
:104C80000201C0200200E0600130704001F03F806E
:104C900000F01F00000000000000000000FE000007
:104CA00001FF00000301800002008060030181C059
:104CB00001FF070000FE18000000E0000003BF0035
:104CC000000CFFC00071806001C100200301806002
:104CD0000000FFC000003F000000000000001F00B7
:104CE00000007FC000FCC0C001FF80600303E02023
:104CF0000202782002061E2003FC074001F0038018
:104D0000000103C000011C600001E0200001002040
:104D100000010040000001800000000000000000D1
:104D2000002000001C6000001C4000001F800000EC
:104D30000F00000000000000000000000000000064
:104D40000000000000000000000000000000000063
:104D50000000000000000000000000000000000053
:104D60000000000000000000000000000000000043
:104D700000000000000000000007F800003FFF00F6
:104D8000007807C001C000E0030000300400000804
:104D900008000004100000020000000000000000F5
:104DA00010000002080000040400000803000030A6
:104DB00001C000E0007807C0003FFF000007F800D6
:104DC00000000000000000000000000000000000E3
:104DD00000000000000000000000000000000000D3
:104DE00000000000000C1800000E3800000E380013
:104DF00000063000000360000061438000FFFF8078
:104E0000006143000003600000063000000E38001F
:104E1000000E3800000C1800000000000000000028
:104E20000000000000008000000080000000800002
:104E3000000080000000800000008000007FFF0074
:104E40000000800000008000000080000000800062
:104E50000000800000008000000000000000000052
:104E600000000001000000E3000000E2000000FC80
:104E700000000078000000000000000000000000BA
:104E80000000000000000000000000000000000022
:104E90000000000000000000000000000000000012
:104EA0000000800000008000000080000000800002
:104EB00000008000000080000000800000008000F2
:104EC00000008000000080000000800000008000E2
:104ED00000008000000080000000000000000000D2
:104EE00000000000000000C0000001E0000001E040
:104EF000000000C0000000000000000000000000F2
:104F000000000000000000000000000000000000A1
:104F10000000000000000000000000000000000091
:104F20000000000C00000038000000E000000380DA
:104F300000000E00000038000000E00000038000C8
:104F4000000E00000038000000E0000003800000B8
:104F50000E0000001800000000000000000000002B
:104F600000000000000FF800007FFF0000F0078045
:104F7000018000C003000060020000200200002049
:104F80000200002003000060018000C000E00380F8
:104F9000007FFF00000FF80000000000000000008C
:104FA00000000000000000000080002000800020C1
:104FB000008000200080006001FFFFE003FFFFE0B1
:104FC0000000006000000020000000200000002021
:104FD00000000000000000000000000000000000D1
:104FE00000000000007800E000980160010002600D
:104FF00002000460020008600200106002002060ED
:1050000002004060030080600183006001FE00E058
:10501000007C07800000000000000000000000008D
:105020000000000000F0078001F007C00100004010
:1050300002000020020100200201002002010020E5
:10504000030380200186804001FCC0C000787F807F
:1050500000001E0000000000000000000000000032
:10506000000008000000380000004800000188002F
:1050700000060800000C081000300810004008105E
:1050800001FFFFF003FFFFF003FFFFF00000081037
:1050900000000810000008100000000000000000E0
:1050A0000000000000000780001F864003E1002090
:1050B0000302002003040020030400200304002056
:1050C0000304002003060040030301C00301FF8026
:1050D00003007E000000000000000000000000004F
:1050E000000000000007FC00003FFF000070C380CC
:1050F000008180C001010060030200200202002044
:1051000002020020020200200203004001C180C010
:1051100000C0FF8000007E000000000000000000D2
:105120000000000000F0000003C000000380000049
:1051300003000000030007E003003FE00301C0009C
:105140000306000003180000036000000380000055
:10515000030000000000000000000000000000004C
:1051600000001F0000783F8000FC60C0018EC0403E
:10517000030780200203002002018020020180201A
:105180000201C0200301E040018670C000FC3F80A6
:1051900000781F0000000000000000000000000078
:1051A000003F000000FF81C001C0C1C001006020BD
:1051B00002002020020020200200202002002060A7
:1051C000020040C00100C18000C18F00007FFE00CE
:1051D000001FF000000000000000000000000000C0
:1051E00000000000000000000000000000000000BF
:1051F00000000000000300C0000781E0000781E01C
:10520000000300C0000000000000000000000000DB
:10521000000000000000000000000000000000008E
:10522000000000000000000000000000000000007E
:105230000000000000060066000600780000000084
:10524000000000000000000000000000000000005E
:10525000000000000000000000000000000000004E
:1052600000000000000080000001C000000360009A
:1052700000063000000C180000180C00003006007A
:105280000060030000C00180010000400200002017
:1052900004000010000000000000000000000000FA
:1052A00000041000000410000004100000041000AE
:1052B000000410000004100000041000000410009E
:1052C000000410000004100000041000000410008E
:1052D00000041000000410000000000000000000A6
:1052E0000000000004000010020000200100004047
:1052F00000C00180006003000030060000180C00B0
:10530000000C180000063000000360000001C0001F
:10531000000080000000000000000000000000000D
:10532000000000000078000001F8000002380000D2
:1053300002000000040000C0040079E0040081E0E5
:10534000040100C004030000020200000306000084
:1053500001FC000000F80000000000000000000058
:10536000000FF800003FFE000070078000C000C082
:105370000101F8400307FC20021E0420023008202F
:1053800002203020023FFC20013F044001800CC07D
:1053900000E03180001FC20000000000000000207B
:1053A00000000060000003E000003E200003E02059
:1053B000003E200003E020000380200007FC2000C6
:1053C000003FE0000003FE2000003FE0000001E09D
:1053D000000000200000002000000000000000008D
:1053E000020000200200002003FFFFE003FFFFE0B7
:1053F0000201002002010020020100200201002021
:1054000002010020030300200186806001FCC0C06F
:1054100000F87F8000001F00000000000000000076
:105420000007F800003FFF000070078000C000C0C8
:1054300001000040030000200200002002000020C4
:10544000020000200200002001000040018000C096
:1054500003C00180003006000000000000000000D2
:10546000020000200200002003FFFFE003FFFFE036
:1054700002000020020000200200002002000020A4
:105480000300006001000040018000C000F00780C0
:10549000007FFE00000FF800000000000000000088
:1054A000020000200200002003FFFFE003FFFFE0F6
:1054B0000201002002010020020100200201002060
:1054C0000201002002038020020FE02003000060A0
:1054D00003C000E0006003000000000000000000C6
:1054E000020000200200002003FFFFE003FFFFE0B6
:1054F0000201002002010020020100000201000060
:10550000020100000201000002038000030FE0001E
:105510000300000003C00000006000000000000065
:105520000007F800003FFE000070078001C001C0C6
:1055300001000040030000200200002002000020C3
:1055400002000020010020200100204003C03F8015
:1055500000303F80000020000000200002000020FA
:105560000200002003FFFFE003FFFFE002008020B5
:105570000200802000008000000080000000800009
:10558000020080200200802003FFFFE003FFFFE015
:1055900002000020020000200000000000000000C7
:1055A00000000000000000000200002002000020B7
:1055B000020000200200002003FFFFE003FFFFE0E5
:1055C0000200002002000020020000200200002053
:1055D00000000000000000000000000000000000CB
:1055E0000000000E0000000F0000000F000000018E
:1055F0000200000102000001020000030200000698
:1056000003FFFFFC03FFFFF80200000002000000A0
:105610000200000002000000000000000000000086
:10562000020000200200002003FFFFE003FFFFE074
:105630000200C0200201002000078000000FE000EF
:105640000030F80002603E2003800F20030003E0DA
:10565000020000E002000020000000200000000026
:10566000020000200200002003FFFFE003FFFFE034
:1056700002000020020000200000002000000020A6
:10568000000000200000002000000020000000605A
:10569000000000E000000300000000000200002005
:1056A0000200002003FFFFE003E0002003FF0020D2
:1056B000001FF0000001FF8000000FE000001E004E
:1056C0000003E000003E002003E0002003FFFFE0B5
:1056D00003FFFFE002000020020000200200002083
:1056E0000200002003FFFFE00380002003F0002001
:1056F00000FC0000001F00000007C0000001F000D7
:1057000000007C0002001F80020007E003FFFFE0B2
:105710000200000002000000000000000000000085
:10572000000FF800003FFE0000F00780018000C07D
:1057300001000040020000200200002002000020C2
:105740000200002001000040018000C000F0038042
:10575000003FFE00000FF800000000000000000005
:10576000020000200200002003FFFFE003FFFFE033
:1057700002008020020080200200800002008000E1
:10578000020080000200800003018000018300000D
:1057900000FE0000007C000000000000000000008F
:1057A000000FF800007FFF0000F00380018001C0BF
:1057B000010006400200042002000420020006202E
:1057C000020003E0010000F80180005C00E0038CAF
:1057D000003FFF0C000FFC1800000000000000005C
:1057E000020000200200002003FFFFE003FFFFE0B3
:1057F0000201002002010020020180000201E000FD
:105800000201FC0003033F80018607E001FC00E089
:1058100000F8002000000020000000000000000050
:10582000000000000078060000FE01E0018600C0D4
:1058300003030040020300200201802002018020B7
:105840000201C0200200C0200100E060018070C0A1
:1058500003E03F8000001F00000000000000000087
:105860000060000003800000030000000200000050
:10587000020000200200002003FFFFE003FFFFE022
:1058800002000020020000200200000002000000D0
:105890000380000000E000000000000002000000A3
:1058A0000200000003FFFF0003FFFFC002000040F2
:1058B0000200006000000020000000200000002026
:1058C00000000020020000400200008003FFFF00F3
:1058D00002000000020000000000000000000000C4
:1058E000020000000200000003C0000003FC0000F2
:1058F000023FC0000003F80000007F80000007E0C6
:1059000000000780000078000203C000023C000095
:1059100003C00000020000000200000002000000BE
:1059200003C0000003FF8000023FFE0002007FE092
:1059300000000F000200F00003EF000003FF8000F2
:10594000020FFE0000003FE000001F000207E00021
:1059500003F8000003000000020000000000000047
:105960000200002002000020038000E003F003207A
:1059700002FC0C20021F30000007C0000007F000EE
:1059800002187C0002601F20038003E0020000E098
:1059900002000020000000200000000000000000C5
:1059A000020000000300000003C0000003F8000034
:1059B000023E0020020FC0200001FFE000007FE057
:1059C00000038020021C0020027000000380000001
:1059D00002000000020000000000000000000000C3
:1059E00000000020006000E0038003E003000FA03F
:1059F00002003E200200F8200203E020020F802077
:105A0000023E00200278002003E00060038000E0F6
:105A10000200030000000000000000000000000081
:105A20000000000000000000000000000000000076
:105A3000000000001FFFFFFC100000041000000425
:105A40001000000410000004100000041000000406
:105A50001000000400000000000000000000000032
:105A600000000000000000000700000003C000006C
:105A700000780000001E00000003C0000000F000DD
:105A800000001E0000000780000000F00000003C45
:105A90000000000600000000000000000000000000
:105AA00000000000100000041000000410000004BA
:105AB0001000000410000004100000041000000496
:105AC0001FFFFFFC000000000000000000000000BD
:105AD00000000000000000000000000000000000C6
