:020000040800F2
:1000000040580020D50200080F400008113F0008AA
:100010000D400008393100080150000800000000C0
:10002000000000000000000000000000374200084F
:100030003133000800000000354200083942000852
:10004000EF020008EF020008EF020008EF020008CC
:10005000EF020008EF0200083333000839330008CC
:10006000EF020008EF0200083F330008EF0200082B
:10007000EF020008EF020008EF020008EF0200089C
:10008000EF020008EF020008EF020008EF0200088C
:10009000EF020008EF020008EF020008EF0200087C
:1000A000EF020008EF020008EF020008EF0200086C
:1000B000EF020008EF020008EF020008EF0200085C
:1000C000EF020008EF020008EF020008EF0200084C
:1000D000EF020008A14C00086D4D0008494E0008D1
:1000E000EF020008EF020008EF020008EF0200082C
:1000F000EF020008EF020008EF020008EF0200081C
:10010000EF020008EF020008EF020008EF0200080B
:10011000ED490008C94A0008EF020008EF02000894
:10012000EF020008EF020008EF020008EF020008EB
:10013000EF020008EF020008EF020008EF020008DB
:10014000EF020008EF020008EF020008EF020008CB
:10015000EF020008EF020008EF020008254F000838
:10016000EF020008EF020008EF020008EF020008AB
:10017000EF020008EF020008EF0200080000000094
:10018000EF020008EF02000800F002F800F092F819
:100190000AA090E8000C82448344AAF10107DA45E2
:1001A00001D100F087F8AFF2090EBAE80F0013F0A2
:1001B000010F18BFFB1A43F0010318473C890000E8
:1001C0005C890000103A24BF78C878C1FAD8520779
:1001D00024BF30C830C144BF04680C6070470000C1
:1001E0000023002400250026103A28BF78C1FBD840
:1001F000520728BF30C148BF0B6070476E2900F01E
:10020000A884702900F01B86662905F0D281652933
:1002100005F0CF81672905F0CC81612905F0CB81FC
:1002200003681B0A28BF41F08001692900F08C8116
:10023000642900F08981752900F086816F2900F01A
:10024000A885782900F0E785E92900F04385E429AD
:1002500000F04085F52900F03D85EF2900F0A585E7
:10026000F82900F0E6850368DB0928BF41F080012A
:10027000632900F0B284732900F0B784E32901F008
:100280004982F32901F04E82002070471FB505F026
:100290008BF900F055FE04000020002105F058F90C
:1002A000401C60600020002105F068F9E0601FBD7F
:1002B00010B510BD01F01CFC1146FFF7E7FF05F07B
:1002C00041F801F0EDFC03B4FFF7F2FF03BC04F0CA
:1002D00048FF00000948804709480047FEE7FEE75D
:1002E000FEE7FEE7FEE7FEE7FEE7FEE7FEE7FEE7E6
:1002F00004480549054A064B704700004943000879
:10030000890100084052002040580020405400203D
:1003100040540020704753EA020C00F069802DE938
:10032000F04B4FF00006002B1FBFB3FA83F503FA22
:1003300005F424FA05F65E4012BF1643B2FA82F5C0
:1003400002FA05F4C5F120051EBF22FA05FC44EAB5
:100350000C04203556EA044C4FEA144418BF641CC0
:100360004FF000084FF00009904271EB030C39D3B5
:10037000002919BFB1FA81F701FA07F6B0FA80F740
:1003800000FA07F6C7F120071EBF20FA07FC46EA6D
:100390000C062037B6FBF4FCA7EB0507103F07F06F
:1003A0001F0BCBF120060CFA0BFB2CFA06F644BF10
:1003B000B3460026202FA4BF5E464FF0000B5BEA39
:1003C000060C08BF4FF0010B19EB0B09ABFB027CCD
:1003D00048EB0608C01B06FB02CC0BFB03CC71EB01
:1003E0000C01C1E70B46024641464846BDE8F08B8A
:1003F00013B54FF000004FF00001AFF30080BDE8EF
:100400001C40704710B5044600F030FB0068005DEA
:10041000000704D5DF2C02D0A4F1200010BD204637
:1004200010BD00007CB51D4616460C00009001D0A2
:100430002044401E074B7B442A46694601903046C3
:1004400000F0A1FB05461CB10020694600F0AEFBA0
:1004500028467CBD7D0700000FB4044910B503AAEF
:10046000029800F0C7FB10BC5DF814FB3C000020B4
:100470000FB47CB50C0009AA009001D02044401EA6
:10048000084B7B4469460190089800F07CFB0546C8
:100490001CB10020694600F089FB28467CBC5DF851
:1004A00014FB00003107000070B504468569006840
:1004B000C10601D5302600E02026C00707D070BD58
:1004C000D4E9012130469047206A401C20626D1E0D
:1004D000F6D570BD70B5044685690078C00707D1B0
:1004E00070BDD4E9012120209047206A401C206281
:1004F0006D1EF6D570BD70B50C460546012A05D0B7
:100500002878800600D5EA69002302E0012305E08F
:100510005B1C934202D2E05C0028F9D1A869E6187E
:10052000C01AA861286A184428622846FFF7BCFF51
:1005300004E0D5E9012114F8010B9047B442F8D347
:100540002846FFF7C7FF70BD2DE9F041064600249D
:1005500010687529314616A510D000F08FFA0028D2
:1005600002DA404213A507E031688A0701D512A5D7
:1005700002E0490704D511A5012401E000F087FA43
:1005800000210A2206F1240709E0B0FBF2FCB0FBCF
:10059000F2F302FB1C00303078541846491C002846
:1005A000F3D123462A463046BDE8F04100F078BA40
:1005B000000000002D0000002B00000020000000C3
:1005C0002DE9F05F894604464FF0000ADFF874B168
:1005D000FB44C0F820A02046E1688847002874D07A
:1005E000252806D0D4E901219047206A401C2062CA
:1005F000F1E700265F462046E16888472028054647
:1006000007DB312D05D2781910F8200C08B106430C
:10061000F1E7B00701D526F00406C4F81CA00027B6
:10062000C4F818A02A2D09D0284604F093FD38B349
:1006300004EB8708303DC8F8185019E059F8041B3E
:10064000204604EB87029161E1688847012F054647
:1006500018D1E069002820DA26F020061DE0D8F83D
:10066000180000EB800005EB40003038C8F8180097
:100670002046E1688847054604F06CFD0028EED16D
:10068000012F0AD02E2D08D12046E16888477F1C13
:100690000546022F46F02006C4DBA069002803DAD5
:1006A000404246F00106A061F00701D026F0100696
:1006B0006C2D0BD0682D09D04C2D39D06A2D35D03A
:1006C000742D35D07A2D33D016E038E0E1682F460E
:1006D00020468847B842054609D16C2F26D04FF4F2
:1006E0008060E168064320468847054604E06C2F99
:1006F0001AD04FF4807006430DB3A5F141001928BC
:1007000002D8203546F400664A462946204626602F
:100710004E46FFF773FD80B101280BD0F61D26F081
:10072000070000F1080956E74020E4E78020D8E7F9
:100730000020D6E706F104094DE7284652E7206A73
:10074000BDE8F09F9E8300000FB400B58DB010A9E6
:10075000099000910B904FF0FF300A9000200C9010
:10076000064878440690064878446A4607900F99F0
:1007700009A800F083FB0DB05DF814FB37070000FB
:100780004F0700002DE9FF5F1D464FF0FF3B9146EC
:100790004FF000085F46D5E90146A96901987F1C22
:1007A0008847296A824688470028F6D1BAF1FF3F78
:1007B0000CD0002E24F4C06419DD600614D5BAF103
:1007C0002B0F09D0BAF12D0F0ED103E0584604B01B
:1007D000BDE8F09F44F48064A96901987F1C8847B4
:1007E000761E8246002E02DDBAF1300F03D0B9F139
:1007F000000F26D032E0A969761E01987F1C44F4D0
:1008000000748847002E824605DDBAF1780F06D0C5
:10081000BAF1580F03D0B9F1000F10D01EE0B9F1B2
:10082000000F02D0B9F1100F18D1A969761E0198F6
:100830007F1C24F4007488478246102002E00820C0
:1008400000E00A20814609E0A96908FB0908761E34
:1008500001987F1C44F4007488478246002E05DD11
:100860004946504600F0F6FA0028EDDAE9690198A9
:100870008847A00502D46FF00100A8E7E00725D162
:10088000600613D5600502D5C8F1000000E04046BF
:1008900029680A1D2A600968220501D5087015E03B
:1008A000220701D5088011E008600FE02868011DCB
:1008B00029600068210502D580F8008006E0210744
:1008C00002D5A0F8008001E0C0F8008038467EE73D
:1008D000401ECAB210F8011F8A4202D00029F9D185
:1008E0000020704730B505460B462A4613F8014BE9
:1008F00012F8010B08B1A042F8D01CB1002802D0B8
:100900006D1CF1E7284630BD10B5431C02E010F81D
:10091000011B71B18107FAD14FF0013202C88C1A64
:100920008C4314EAC211F9D0C01A0A0603D0C01EC3
:1009300010BDC01A10BD0A0401D0801E10BD0902EE
:10094000FCD0401E10BD032A40F2308010F0030C92
:1009500000F0158011F8013BBCF1020F624498BF12
:1009600011F801CB00F8013B38BF11F8013BA2F1AF
:10097000040298BF00F801CB38BF00F8013B11F02A
:10098000030300F0AB82083AC0F0088051F8043B42
:10099000083A51F804CBA0E80810F5E7121D5CBF37
:1009A00051F8043B40F8043BAFF30080D20724BF6A
:1009B00011F8013B11F801CB48BF11F8012B24BFFE
:1009C00000F8013B00F801CB48BF00F8012B70474D
:1009D0004FF000020429C0F0128010F0030C00F068
:1009E0001B80CCF1040CBCF1020F18BF00F8012BE6
:1009F000A8BF20F8022BA1EB0C0100F00DB85FEAB4
:100A0000C17C24BF00F8012B00F8012B48BF00F87F
:100A1000012B70474FF0000200B5134694469646EE
:100A2000203922BFA0E80C50A0E80C50B1F1200101
:100A3000BFF4F7AF090728BFA0E80C5048BF0CC0AF
:100A40005DF804EB890028BF40F8042B08BF70470D
:100A500048BF20F8022B11F0804F18BF00F8012B7F
:100A600070477047704770477047000010B500F03E
:100A700067FA001D10BD00BFD94A000009684A0589
:100A800001D540B27047C905FCD500B2704709686E
:100A90004A0501D5C0B27047C905FCD580B2704780
:100AA0002DE9F0470D4699469246044600F1240888
:100AB0000168880604D5E06921F01001216000E09A
:100AC0000120A84201DD471B00E00027A1697A1937
:100AD00002EB0900081AA0612078C00602D4204663
:100AE000FFF7E2FC002608E0D4E901211AF806002D
:100AF0009047206A401C761C20624E45F4DB20782B
:100B0000C0060AD52046FFF7CFFC06E0D4E9012154
:100B100030209047206A401C2062381EA7F1010750
:100B2000F4DC07E0D4E9012118F805009047206AB9
:100B3000401C2062281EA5F10105F3DC2046FFF7CA
:100B4000C9FC2078000602D50220BDE8F08701200C
:100B5000FBE711680268006A530501D508700AE0D6
:100B6000D30501D5088006E0130603D5C217C1E9F5
:100B7000000200E0086001207047000001694A1C83
:100B800002610878704700B58FB0CDE901310021CE
:100B9000059105497944CDE9031011466846FFF7F0
:100BA0000FFD0FB000BD0000E5FFFFFF0A6802F86F
:100BB000010B0A607047D1E900239A4202D2531C0C
:100BC0000B601070704710B5436913B1AFF300802C
:100BD00001E0FFF790FC012010BD127800F1240124
:100BE0000A7000224A700122EDE711684FF0FF32CF
:100BF000E9E70000074B70B50D467B44FFF7C3FFE4
:100C00000446284600F04CFF10B14FF0FF3070BD95
:100C1000204670BD374700002DE9FF5F15468A4624
:100C20000446DFF8AC80F8440027D8E900103E46BF
:100C3000CDE9001010E03AF816106A4602A800F05C
:100C400033FF411C07D02178890603D5E2693918A2
:100C500091420DD80744761C2078800602D5E069C1
:100C6000B84205DDAE42E6DB3AF816000028E2D1D4
:100C7000A069C01BA0612046FFF716FCD8E9001050
:100C8000CDE90010002017E03AF818106A4602A8D3
:100C900000F00AFFB0F1FF3F81460BD000250DF1B7
:100CA000080B05E0D4E901211BF8050090476D1CF5
:100CB0004D45F7D308F10100B0428046E4DB206ADD
:100CC000384420622046FFF705FCBDE8FF9F000086
:100CD0005A7D00002DE9F0418046D21D22F0070226
:100CE0000025D2E90002F52915A614D0011E72F1E3
:100CF000000106DA0023D0EB030063EB020211A629
:100D000008E0D8F800108B0701D50FA602E04907CC
:100D100001D50EA601251146002408F1240704E0A0
:100D200000F012F930323A55641C50EA0102F7D152
:100D30002B46324621464046BDE8F041FFF7B0BEA3
:100D4000000000002D0000002B000000200000002B
:100D500030B4002100F1240408E002F00705D208B5
:100D6000303542EA4372DB086554491C52EA0305F8
:100D7000F3D10468002310A2250707D5A40600D4E8
:100D800021B1C46901230DA2641EC46130BCFFF708
:100D900087BE10B5044621461068FFF778FE02466C
:100DA0002046BDE810400023D2E7D21D22F0070103
:100DB000D1E90023CCE70000000000003000000073
:100DC000F0B40D460188090502D5214C7C4402E0AF
:100DD0001F4C7C440E34002100F1240608E002F090
:100DE0000F071209E75D42EA03721B097754491C99
:100DF00052EA0307F3D102780023120704D5702DBD
:100E000006D009B1022311342246F0BCFFF748BED8
:100E100001231034F8E770B504460D4621461068EA
:100E2000FFF735FE024629462046BDE87040002304
:100E3000C6E7D21D22F00703D3E90023C0E7036809
:100E4000126843F0200303600823C3610023B7E75F
:100E5000BC7B00003A2800D2303820F02002412A22
:100E600001D3A2F13700884201D34FF0FF30704721
:100E7000026811441378016018467047D160054933
:100E8000794451610449794411620021116111468C
:100E900000F04CBCEDFFFFFF49010000426842B189
:100EA000016811F8013B23B1521EC0E90012184637
:100EB00070470121C160881E704742685AB1C368FB
:100EC000016843B983688B4205D0491E521CC0E9B2
:100ED0000012002070474FF0FF30704710B5203AE5
:100EE000C0F00B80B1E81850203AA0E81850B1E8E3
:100EF0001850A0E81850BFF4F5AF5FEA027C24BF99
:100F0000B1E81850A0E8185044BF18C918C0BDE88F
:100F100010405FEA827C24BF51F8043B40F8043B58
:100F200008BF7047D20728BF31F8023B48BF11F80D
:100F3000012B28BF20F8023B48BF00F8012B704767
:100F4000004870470052002030B5B0F10A024FEA65
:100F5000900E71F100034EEA817EB0EB0E0061EB62
:100F600091014FEA101E4EEA017E10EB0E0041EB9C
:100F700011114FEA102E4EEA016E10EB0E0041EBFC
:100F800011214FEA104E4EEA014E10EB0E0041EBDC
:100F90001141401841F100014FEAD00040EA417090
:100FA0004FEAD10110EB80054FEA810444EA9074C6
:100FB00044EB01046D1944EB0404521BA3414FF0B0
:100FC000000348BF0A3200D530BD401C41F100018A
:100FD00030BD10B50446FFF749FD0068005D00F024
:100FE000010010BD70472DE9FF4F0C461E464FF023
:100FF000FF378BB0D2E90001DDF860800A908A46A5
:10100000C1F30A5505B93D46002108464FF00000DE
:10101000BAF1000F00F4400005DA00EB80004FF455
:10102000400101EA50004FEA9059B9F1010F00DD8B
:10103000B9460A9850EA4A000ED044F61050A5F27C
:10104000FF3545432F14B8F1000F1ED07542291EFD
:101050001EDDC9F100021CE0B8F1010F4FF00000E5
:1010600001D0302103E0F24305E02154401CB0429E
:10107000FBDB30460022002121540B99C1F8088087
:10108000C1E900200FB0BDE8F08FBD1B6D1CDEE78D
:101090004A4600DA694206A800F090FD06AB93E8E4
:1010A000070003AB83E8070050460A9900F042FEB0
:1010B0008DE80700A0F500501F3800900398002D20
:1010C0000ADD42F21F014A460844002303A90390A7
:1010D000684601F0ABF809E0A0F500504A461F3819
:1010E000002303A90390684601F0B5F88DE80700D6
:1010F0000004000C03D04FF0FF30410800E0104620
:10110000B8F1000F03D00022009215461EE0751EB4
:1011100005D4FFF719FF303262556D1EF9D5B3467D
:101120000122084302D000227F1C04E020783028EE
:1011300001D100227F1E002A099784D01DE0112DC5
:1011400007DAFFF701FF303262556D1C50EA0102E9
:10115000F5D1084302D00098C8B10EE00021681E06
:1011600005E0235C625C63542254401E491C8142AA
:10117000F7DBAB46A81B401E0990002004F80B00CB
:101180000B98099AC0F80880C0E9002B7AE711266D
:101190004FF0000857E72DE9F04F88460446D21D6E
:1011A00022F0070191B0D1E90001CDE90A0103F075
:1011B000A9FF02460B98C00F01D02D2007E0206840
:1011C000810701D52B2002E0202101EAC000032A7B
:1011D000099001D0072A05DB03464146204600F06E
:1011E000ADFC0BE12078800601D5E06900E0062027
:1011F000B8F1650F814606D0B8F1660F18D0B8F186
:10120000670F70D131E00020B9F1110F009001DBC0
:10121000112301E009F101030AAA01A90CA8FFF7B3
:10122000E2FEDDE90C70002609F10105834647E086
:1012300001204B4600904FF000470AAA01A90CA8D4
:10124000FFF7D1FEDDE90DB00C995D46002610B91F
:1012500009F101000D18B9EB050003D4C0F1FF3608
:1012600009F10105A5EB09002BE0B9F1010F01DA45
:101270004FF001090020B9F1110F0090484601DD3F
:10128000112300E003460AAA01A90CA8FFF7ABFE50
:10129000DDE90C704D4600268346207800070AD40D
:1012A000AB4500DA5D4601A8012D04DD411911F8B6
:1012B000011C302907D04F4502DA17F1040F04DA78
:1012C000012082460FE06D1EEEE7002F02DCED1BD1
:1012D0003E4403E0781CA84200DD7D1CB81B00F1F1
:1012E000010A4FF000472078000703D4AA4501DB2C
:1012F0004FF0FF3A0021B7F1004F0DF143088DF890
:10130000431024D002202B23002F01DA7F422D230B
:101310000A21021EA0F1010000DC5FB197FBF1FC85
:1013200097FBF1F201FB1C7C17460CF1300C08F81E
:1013300001CDEEE7A8F1010003702188090501D570
:10134000452100E06521A0F1010800F8011C099881
:101350000FA9A1EB0807FF1D00B10120411901EB06
:10136000EA70A1693844081A401EA0612078C006BE
:1013700002D42046FFF798F8099828B1D4E9012152
:101380009047206A401C20622078C00622D5204663
:10139000FFF78AF81EE0002E04DBB34502DD01A84A
:1013A000805D00E03020D4E901219047206A401C94
:1013B0002062761CAAF101005FEA000A0AD1FFF759
:1013C000BFFDC0680168405CD4E901219047206AF4
:1013D000401C2062281EA5F10105DCDC07E0D4E9F1
:1013E000012118F8010B9047206A401C2062381E2A
:1013F000A7F10107F3DC2046FFF76CF8032011B0DA
:1014000041E600002DE9F04F04460D46D21D22F0C2
:10141000070089B0D0E900974846394603F072FECC
:101420000246F80F01D02D2307E02068810701D57F
:101430002B2302E0202101EAC0038DF820300BB1FC
:10144000012000E00020032A824601D0072A04DBA5
:101450002946204600F072FB3FE12078800601D447
:101460000D2500E0E569C7F30A560D2D49DA002184
:101470004FEA175B08464FF00000002F00F44000D1
:1014800007DA00EB80004FF4400100EBD07001EA76
:1014900060008115012901DD4FF0FF3100224FEA84
:1014A000850CBCF1180F06D31346ACF118004FF0B1
:1014B0008052C24003E04FF4801323FA0CF30CF186
:1014C0000C0CBCF1200F04D3ACF1200C09FA0CF089
:1014D00001E007FA0CF000294FF0004801DD18B9CF
:1014E0000FE00ED140450CD319EB02095F4121B941
:1014F000404502D19F4329EA0209BBEB175F00D0A8
:10150000761C2088000502D57B48784402E07A48A2
:101510007844193808AA302302F80A30037C0AF10B
:101520000101002E0AF1020A53546A4602DC4FF010
:10153000300101E04FF031014FF001088DF800104B
:1015400002D0A6F2FF3603E059EA470100D06B4E05
:10155000002D02DC2178090704D54FF002082E2166
:101560008DF80110C44600210BE0C7F303433F018F
:10157000C35C491C6D1E02F80830052908F10108FA
:1015800001DA002DF1DC00210CE000EB1973491C9D
:101590001B786D1E082902F808304FEA091908F176
:1015A000010801DA002DF0DC21688B0602D516E077
:1015B000A8F10108E04505DD02EB080313F8013C42
:1015C000302BF5D0B8F1000F09DD02EB080313F85A
:1015D000013C2E2B03D1090701D4A8F10108002DED
:1015E00005DD3E2102F808106D1E08F10108407C5F
:1015F000002E02F8080008F1010804DA2D207642D6
:1016000002F8080002E02B2002F808000A214FF43B
:101610007A70864208F101080BDB96FBF0F3303359
:1016200002F8083096FBF0F308F1010800FB13669E
:1016300001E0642E0CDB642096FBF0F3303302F8FB
:10164000083096FBF0F308F1010800FB136601E097
:101650000A2E06DB96FBF1F0303002F8080008F1A4
:10166000010896FBF1F001FB1060303002F8080031
:10167000A16908F1010808EB050202EB0A00081A4B
:10168000A0612078C00602D42046FEF70DFF216A33
:1016900008AE01EB0A00206204E0D4E9012116F84B
:1016A000010B9047BAF1010AF7D22078C00602D5A3
:1016B0002046FEF7F9FE6E4609E016F8010B3E28BB
:1016C0000FD0D4E901219047206A401C2062B8F174
:1016D0000108F2D22046FEF7FDFE09B00320BDE866
:1016E000F08F206A2844206203E0D4E901213020F1
:1016F00090476D1EEBD3F8E7B974000002FCFFFFC2
:1017000010B5436913B1AFF3008001E0FFF784FA2D
:10171000012010BD128800F1240182840022C284BD
:101720000122EDE711684FF0FF32E9E72DE9F34FB1
:101730004FF0000A0C4656468DB001200C9001F186
:101740000C000B9062690B9801219047051E2DD06B
:10175000252D2CD0216A8847C0B162690B980121E0
:101760009047216A88470028F7D16269411E0B988B
:10177000904700E0761CA1690D988847216A884748
:101780000028F7D1E1690D988847DBE7A1690D983A
:101790008847A842074601D1761CD3E7E1690D9836
:1017A00088477F1C02D1BAF1000F6FD06BE16269EC
:1017B0000B9800273D46394690472A2804D1626994
:1017C0000B98012190470125DFF8D08262690B98C0
:1017D00001219047A0F130010A290AD24745E5DCF2
:1017E00007EB870100EB4107303FDFD445F01005E0
:1017F000ECE7E90601D46FF000476C280AD04C28CA
:1018000014D0682815D06A280DD074281CD07A28E6
:101810001AD01DE062690B98012190476C2802D014
:1018200045F0040514E045F002050DE045F0200503
:101830000AE062690B9801219047682802D045F0C0
:10184000080505E045F4006562690B9801219047A1
:10185000C4E9015765283DD019DC58287AD00CDC42
:10186000452837D004DC252826D041289ED131E0F8
:1018700046282FD0472899D12CE05B2877D06128C3
:1018800028D063287CD0642823D15AE0F6E06F2862
:1018900048D008DC66281DD067281BD0692821D0D5
:1018A0006E2816D127E0702845D0732868D0752897
:1018B00047D078280DD14DE0A1690D98884725289B
:1018C00005463FF469AFE1690D9888476D1C3FF408
:1018D0006AAFD8E00D9923466A466FF00100AFF376
:1018E0000080C5E045F0400023464FF000026060F4
:1018F000A80736D43EE0E8077FF447AF2068011D13
:1019000021600068290501D506701BE7290701D56C
:10191000068017E7A90703D5F117C0E9006111E7B1
:1019200006600FE745F0400023464FF00802606074
:10193000A80716D41EE040F60E0125EA01006060FB
:1019400016E045F0400023464FF00A026060A80709
:1019500007D40FE045F040006060A80708D5234693
:1019600010220D996FF00100AFF3008080E007E0D6
:10197000102223460D996FF00100FEF703FF77E078
:101980004FF0000963284F46C8464B46CB4602D06D
:101990005B2806D038E0E80601D40120A0600127CA
:1019A00032E06269D4F80CB00B98012190475E28B0
:1019B00007D14FF0010949466269D4F80CB00B9881
:1019C0009047216939B900210A4603AB43F8212029
:1019D000491C0829FADBD8B3216949B308F1010889
:1019E00062690B98012190475D28F4D1B9F1000F8D
:1019F00009D0002003A951F82020D24341F820202B
:101A0000401C0828F7DB03AB2069002820794FEA47
:101A100040701ED05B462246CDF80080CDE901978C
:101A20000D9900286FF0010020DAAFF300801FE06D
:101A3000C11703AA00EBD1614B1121F01F0102EB8A
:101A40008302411A13680120884003431360C7E7EB
:101A500019E00D99224600286FF00100009702DA84
:101A6000AFF3008004E0AFF3008001E0AFF300804B
:101A700000280ADA401C06D10C9820B14FF0FF3044
:101A80000FB0BDE8F08F5046FAE7E90701D10AF13F
:101A9000010A064400200C9054E60000CCCCCC0C8B
:101AA000007B00F08000704770B516460C46054676
:101AB000FEF7DCFF036893F80101012806D0FF2C34
:101AC0000FD8185D68B101202C7070BDD3F80701E4
:101AD0003246214603F2071303442846BDE870400E
:101AE00018474FF0FF3070BD00487047E0510020AC
:101AF0007546FFF7F9FFAE4605006946534620F0EC
:101B00000700854618B020B5FEF7F2FBBDE820407F
:101B10004FF000064FF000074FF000084FF0000BA9
:101B200021F00701AC46ACE8C009ACE8C009ACE85C
:101B3000C009ACE8C0098D46704700002DE9F041AE
:101B40001F46044603260168072A01F4006004DBEF
:101B500008B116A505E016A503E008B115A500E03B
:101B600015A521F010002060A069C01EA0610FB172
:101B7000401EA0612046FEF797FC4FB1D4E9012139
:101B800038469047206A401C2062C01C206206E054
:101B9000206AFAE7D4E9012115F8010B9047761E77
:101BA000F8D22046FEF796FCBDE8F0814E414E008B
:101BB0006E616E00494E4600696E66002DE9F04781
:101BC000814616468AB0354878440DC88DE80D0028
:101BD00032487844801C03AC0DC884E80D0041F6FF
:101BE0009B300844372190FBF1F290FBF1F5A5F111
:101BF000800501FB12041B3C02D56442012000E079
:101C00000020DFF898A080460027FA44AAF1BE0A17
:101C10000EE0E0070AD03246684607EB4701012391
:101C20000AEB810100F017FB8DE8070064107F1CB0
:101C3000002CEED1194F7F44AE3F19E0E80715D0D4
:101C400007EB04100DF1180A90E80E008AE80E0068
:101C5000C068F04201D1981908903246012306A9C4
:101C600003A800F0F8FA03AB83E807006D10641CCA
:101C7000002DE3D14FF0010332466946B8F1000F61
:101C800003A802D000F0D2FA01E000F0E4FAC9E9BA
:101C90000001C9F808200AB0BDE8F0878C6E00008A
:101CA00010B50446AFF300802046BDE81040FEF7B3
:101CB0000ABB00004FF0013C50F8042B51F8043BE4
:101CC0009A4221D1A2EB0C03934313EACC1317D110
:101CD00050F8042B51F8043B9A4215D1A2EB0C03A7
:101CE000934313EACC130BD150F8042B51F8043B67
:101CF0009A4209D1A2EB0C03934313EACC13DBD035
:101D00004FF00000704700BFD01A01BAB1FA81F15C
:101D100001F0180122FA01F0CB40C1F12001DBB241
:101D2000C0B2C01A2CFA01F3D11A914311EAC311BF
:101D3000E6D170475FEA400C08BF91F0000F4FEA10
:101D40008C234FEAC12243EA51514FEA1C5018BF7D
:101D500000F5F0404FEA300018BF41F000415FEA63
:101D60006C5C00F02980BCF1FF3F08BF40F0804070
:101D70007047130C06BF12044FF0100C4FF0000C0C
:101D8000130E04BF12020CF1080C130F04BF120152
:101D90000CF1040C930F04BF92000CF1020CD30F52
:101DA00004BF52000CF1010C11464FF00002A0F1EB
:101DB0001F00A0EB0C00704711F0004F08BF7047E8
:101DC00031F000413FF4D5AF0B0C06BF09044FF0D2
:101DD000100C4FF0000C0B0E04BF09020CF1080CA4
:101DE0000B0F04BF09010CF1040C8B0F04BF890019
:101DF0000CF1020CCB0F04BF49000CF1010CCCF12B
:101E00002003A0EB0C0022FA03F302FA0CF241EAE1
:101E1000030100F10100704720F07F4C80EA0300CD
:101E200023F07F47ACEB070303F57C5300F0004041
:101E300003F1FF032DE980494FEA154B09B44FEA3E
:101E4000144325EA0B4E24EA03480FF2042606EB5E
:101E5000132749083E785FEA320203FB0667C7F59D
:101E6000000707FB06F64FEA54374FEAD64606F15D
:101E7000020607FB066CCCF1005C4FEA1C472CEA1B
:101E8000074C07FB06F40CFB06F504EB15464FEA7E
:101E9000961634BF00204FF000404FEAD13706FBC2
:101EA00007FC4FEA1C4C0CFB0BF7D21B03FB0CF797
:101EB00061EB07010CFB0EF7B0EB074072EB17422A
:101EC0000CFB08F734BFA2EB0742B2EB074261EB11
:101ED00017414FEA0C444FEA910706FB07FC4FEA13
:101EE0001C4C0CFB0BF7B0EBC74072EB573203FBFB
:101EF0000CF734BFA2EBC742B2EBC74261EB5731DC
:101F00000CFB0EF7B0EBC70072EB57720CFB08F737
:101F100034BFA2EBC702B2EBC70261EB5771039F5C
:101F20004FEA816141EA921104EBCC044FEAD137C8
:101F30004FEA826206FB07FC42EA90124FEA806099
:101F40004FEA1C4C0CFB0BF7D21B03FB0CF761EBAD
:101F500007010CFB0EF7B0EB074072EB17420CFBCE
:101F600008F734BFA2EB0742B2EB074261EB17411F
:101F70004FEA8C554FEA910704EB9C2406FB07FCC3
:101F80004FEA1C4C0CFB0BF7B0EBC74072EB57321F
:101F900003FB0CF734BFA2EBC742B2EBC74261EBC5
:101FA00057310CFB0EF7B0EBC70072EB57720CFB0E
:101FB00008F734BFA2EBC702B2EBC70261EB57715F
:101FC00015EB4C254FEA816141EA92114FEA82629A
:101FD0004FEAD13742EA901206FB07FC44F10004B5
:101FE0004FEA80604FEA1C4C0CFB0BF7D21B03FB43
:101FF0000CF761EB07010CFB0EF7B0EB074072EB3F
:1020000017420CFB08F734BFA2EB0742B2EB0742C2
:1020100061EB174115EB1C154FEA813141EA924102
:102020004FEA823242EA90424FEA80304FEA0C7621
:1020300044F1000448EA03434EEA0B484FF0000E17
:10204000B2EB080C71EB030724BF624639464EEB36
:102050000E0E4FF0000B0018524149414BEB0B0B99
:10206000B2EB080C71EB03077BF1000B24BF624657
:1020700039464EEB0E0E4FF0000B0018524149410D
:102080004BEB0B0BB2EB080C71EB03077BF1000B76
:1020900024BF624639464EEB0E0E51EA020718BFC6
:1020A00046F0010616EB0E7655F1000254F10001E0
:1020B00003D5BDE88901BDE80088BDE88901BDE818
:1020C0000048B619524141EB0101A3F101037047E9
:1020D00080807F7E7D7C7B7A797877767675747365
:1020E000727171706F6E6E6D6C6C6B6A6A69686824
:1020F000676666656464636362616160605F5F5EBA
:102100005E5D5D5C5C5B5B5A5A595958585757562F
:102110005655555554545353525252515150505094
:102120004F4F4F4E4E4D4D4D4C4C4C4B4B4B4A4AE6
:102130004A4949494848484747474746464645452A
:102140004544444444434343434242424241414163
:10215000002B9C4630D477002BD01CB54FEA3707B4
:1021600003B44FF010004FF01001BAF1000F06D089
:10217000BCF1000FDCBF40F0080040F008014FF058
:1021800000000FBCBDE810400BF1010BBBF1010FCB
:1021900008BF5FEA170722BF12F1010211F1010126
:1021A0004FF0004143F1000300F0004043EA00001B
:1021B0007047F9D35708D0E746EA064613F1400FB7
:1021C0004FEA16461FDD13F1200FDFBF16430A4604
:1021D000002120335B42BED0C3F1200746EA064609
:1021E00002FA07F74FEA164646EA0706C3F1200748
:1021F00022FA03F201FA07F721FA03F14FF0000384
:1022000042EA0702A7E746EA020646EA06464FEA1E
:10221000164646EA0106BCBF46EA0646360C4FF0B3
:1022200000034FF000024FF0000194E72DE9804CCD
:102230009A46934670B491E8380007C831EA400CDA
:1022400048BF34EA430C03D5FFF7E6FDFFF780FFF4
:10225000F0BCBDE8008C2DE9804C9A46934670B4E2
:1022600091E8380007C810F0804F08BF13F0804F86
:1022700003D100F005F8FFF76BFFF0BCBDE8008C60
:1022800020F07F4780EA030023F07F4C07EB0C032C
:10229000A3F57C5300F00040A3F1FE0392F0000F81
:1022A00000F0B38095F0000F00F077802DE9014930
:1022B0004FEA11404FEA144621EA004800FB06FCB1
:1022C00024EA064708FB06F607FB08F800FB07F7B9
:1022D00018EB06484CEB164C4FEA124B18EB07482C
:1022E0004FEA15464CEB174022EA0B4E0BFB06FC5F
:1022F00025EA06470EFB06F607FB0EFE0BFB07F76B
:102300001EEB064E4CEB164C4FF000061EEB074E34
:102310004CEB174B18EB0B0840F1000018EB0E0BC1
:1023200058EB000840F100008F1A4FF000013CBF4D
:10233000C943661B14BFB5EB040C00213CBFC94365
:10234000F61B4FEA17444EEA8E0E27EA04454FEA81
:102350001C4704FB07622CEA074C05FB07F70CFB44
:1023600005F604FB0CFC16EB074642EB174216EB96
:102370000C4642EB1C421BEB060658EB02024141A5
:1023800046EA9E0601D5BDE80189B619524141EBE6
:102390000101A3F10103BDE801894FEA14454FEAA9
:1023A000114724EA054621EA074C05FB07F406FB22
:1023B00007F70CFB06F105FB0CFC11EB074144EBA6
:1023C00017444FEA124711EB0C4144EB1C4422EA3C
:1023D000074C05FB07F206FB07F70CFB06F605FBAF
:1023E0000CFC16EB074642EB174216EB0C4642EB91
:1023F0001C456A1854F1000148BF7047B619524194
:1024000041EB0101A3F10103704795F0000F37D0B4
:102410004FEA11424FEA144721EA024624EA074CE8
:1024200002FB07F106FB07F70CFB06F402FB0CFCB2
:1024300014EB074441EB17414FEA154714EB0C44EA
:1024400041EB1C4125EA074C02FB07F506FB07F7A9
:102450000CFB06F602FB0CFC16EB074645EB17459A
:1024600016EB0C4645EB1C42121951F1000148BF16
:102470007047B619524141EB0101A3F101037047C6
:102480004FEA14454FEA114724EA054621EA074C72
:1024900005FB07F106FB07F70CFB06F24FF0000601
:1024A00005FB0CFC12EB074241EB174112EB0C420F
:1024B00051EB1C4148BF7047921841EB0101A3F159
:1024C000010370477FB5DDE908540A9E002808D053
:1024D000002906D0CDE90262CDE9005401A2FDF742
:1024E000C7FF7FBD7B2274656D70223A25752C2253
:1024F00068756D69223A25752C22706972223A2519
:10250000752C22646F6F72223A25752C22646874D0
:10251000223A25757D0D0A0060B159B1064A5378FB
:1025200043B1537803709078087000205070907019
:1025300001207047002070470C00002070B588B063
:1025400020216846FEF766FA304C0020207060704B
:10255000A07004F10801086008714FF4E13002F046
:1025600045F900254FF44876324629A129A000F00C
:1025700033FA012807D0C82000F0E6FE6D1CEDB24A
:10258000032DF1D301E0032D01D324A03AE04FF451
:10259000FA752A461EA12AA000F01EFA6E003246E5
:1025A0001BA129A000F018FA002826D0324618A155
:1025B00029A000F011FA002821D02A4614A12AA04F
:1025C00000F00AFA40F24D152B462CA22021684655
:1025D000FDF74EFF40F2DC520DA1684600F0FCF919
:1025E00078B10120207000F0D9FF6060294628A052
:1025F000FDF732FF012008B070BD2FA002E035A02A
:1026000000E03BA0FDF728FF0020F4E70C000020CD
:102610004F4B000041540D0A000000004553503854
:1026200032363620696E6974206661696C3A206EB4
:102630006F20415420726573706F6E73650D0A00D0
:10264000415445300D0A000041542B43574D4F442F
:10265000453D330D0A00000041542B4349504D5570
:10266000583D310D0A00000041542B434950534559
:10267000525645523D300D0A0000000041542B4394
:1026800049505345525645523D312C25750D0A008F
:102690004553503832363620736572766572207233
:1026A00065616479206F6E2054435020706F72749E
:1026B0002025750D0A00000045535038323636206B
:1026C000696E6974206661696C3A2043574D4F44C6
:1026D000450D0A004553503832363620696E69740C
:1026E000206661696C3A204349504D55580D0A00E7
:1026F0004553503832363620696E697420666169F8
:102700006C3A204349505345525645520D0A000039
:1027100030B59BB0044660216846FEF77BF9002C7B
:1027200071D043A12046FEF7DDF805007DD03A21A7
:10273000FEF7CEF8040078D019AB18AA3EA12846BF
:10274000FEF702F8022870D1189805286DD2199862
:1027500000286ADD651C84B2602C00D35F24284603
:10276000FEF7D2F880B2A04203D22846FEF7CCF89A
:1027700084B2224629466846FEF7E5F800226846FC
:102780000DF804200CE0031913F8011C0D2903D0E7
:102790000A2901D0202905D1641E03F8012CA4B216
:1027A000002CF0D10546002405E000BFFDF72AFE0D
:1027B0002855641CA4B2285D0028F7D121A16846E1
:1027C000FEF790F8224C30B1012060701898C0B22A
:1027D000A07020A127E023A16846FEF783F830B15E
:1027E000022060701898C0B2A07021A11BE025A142
:1027F0006846FEF777F838B1032060701898C0B2C9
:10280000A07023A10FE010E026A16846FEF76AF849
:1028100030B1042060701898C0B2A07024A102E00A
:10282000189828A1C0B200F0F9F81BB030BD000024
:102830002B4950442C0000002B4950442C25642C7B
:1028400025643A00444F4F523D4F50454E00000022
:102850000C00002041434B3A444F4F523D4F5045EE
:102860004E0D0A00444F4F523D434C4F534500001C
:1028700041434B3A444F4F523D434C4F53450D0A51
:1028800000000000444F4F523D544F47474C450015
:1028900041434B3A444F4F523D544F47474C450DEF
:1028A0000A0000004745543D53544154555300001D
:1028B00041434B3A4745543D5354415455530D0AF7
:1028C000000000004552523A434D442C55534520D8
:1028D000444F4F523D4F50454E2F434C4F53452F81
:1028E000544F47474C45204F52204745543D535481
:1028F000415455530D0A00002DE9F04186B0804641
:1029000014216846FEF786F8B8F1000007D019A137
:10291000FDF7E8FF1B4D002620B12E602E7106B09A
:10292000BDE8F08100240127234617A21421684640
:10293000FDF79EFD69464046FDF7D4FF20B12F55B7
:10294000214614A0FDF788FD234619A214216846EC
:10295000FDF78EFD69464046FDF7C4FF20B12E55B8
:10296000214616A0FDF778FD641CE4B2052CDBD3EC
:10297000D5E700005749464920444953434F4E4E3E
:10298000454354001400002025752C434F4E4E45FE
:102990004354000045535038323636206C696E6B14
:1029A00020257520636F6E6E65637465640D0A0083
:1029B00025752C434C4F5345440000004553503877
:1029C000323636206C696E6B20257520636C6F7310
:1029D00065640D0A0000000010B109B101F0A8BF44
:1029E000002070472DE9F0439BB00E46DDE92278C8
:1029F00081461C461546602103A8FEF70BF88DE8BA
:102A000090012B463246602103A8FFF75BFD03A926
:102A1000484600F003F81BB0BDE8F08370B58AB0FB
:102A20000D460446202101A8FDF7F4FF002D3DD0FE
:102A3000052C3BD21E48005D00282CD02846FDF70F
:102A400063FF0004000C25D00090234619A220212A
:102A500001A8FDF70DFD4FF448721BA101A8FFF777
:102A6000BBFF002817D0294618A001F0A3FF18A625
:102A70004FF47A7401F0B4FE88B101F0ABFE0500AA
:102A80000BD0FFF739FF31462846FDF72BFF20B169
:102A900001F09AFE01200AB070BD01F095FE012000
:102AA00000F052FC641E2404240CE3D10020F2E761
:102AB0001400002041542B43495053454E443D25BA
:102AC000752C25750D0A00003E00000025730000DE
:102AD00053454E44204F4B000B4810B5007800285A
:102AE00010D001F07DFE00280CD001F073FE040030
:102AF00004D0FFF701FF2046FFF70AFEBDE81040B3
:102B000001F062BE10BD00000C0000202DE9F04372
:102B10009BB0884681461D461646602103A8229F29
:102B2000FDF778FF124C207800281ED000F036FD0B
:102B30006168411AB1F5FA6F17D36060CDE900659D
:102B400043464A46602103A80297FFF7BBFC084DA5
:102B500000240835285D012803D103A92046FFF78A
:102B60005DFF641CE4B2052CF4D31BB0BDE8F08318
:102B70000C00002070B54FF4E13001F029FD01F0A8
:102B800053FA01F045FA00F04BF801F0D3F900F0E8
:102B900095F800F0BFF8002000F016F90C4C002565
:102BA000257000F013FB60B1A5700AA0FDF754FC7E
:102BB000FFF7C4FC012808D00BA0BDE87040FDF76A
:102BC0004BBC0120A0700DA0F0E710A0F5E70000BD
:102BD00000000020444854313120696E6974206639
:102BE00061696C0D0A0000004553503832363620BA
:102BF000696E6974206661696C0D0A00444854313D
:102C00003120696E6974206F6B0D0A00455350388E
:102C100032363620696E6974206F6B0D0A00000031
:102C200070B586B014216846FDF7F4FE17480024FD
:102C3000016841F004010160016801F0040105919F
:102C4000016841F0020101600068114D00F00200CE
:102C5000059001222021284600F09BFC0D4E002209
:102C60000421304600F095FC202000900120CDE9A1
:102C7000010469462846039400F086FB0420009076
:102C80006946304600F080FB06B070BD3038024027
:102C90000008024000040240044B012804D0012235
:102CA0002021184600F075BC0022F9E70008024018
:102CB0000421014800F065BC0004024000B587B063
:102CC00014216846FDF7A6FE0A4900200A6842F072
:102CD00001020A600968029001F0010105910221D8
:102CE000CDE9001003906946034800F04DFB07B0A2
:102CF00000BD0000303802400000024010B5022143
:102D0000034800F039FC012800D0002010BD00006D
:102D10000000024010B58EB0142107A8FDF77AFE1E
:102D20001C216846FDF776FE23480024016841F027
:102D300001010160006800F001000C901E48103095
:102D4000016841F002010160006807A900F002007B
:102D50000C90C02007900220CDE90804CDE90A407C
:102D6000164800F011FB1748154901605321C0E9CE
:102D7000011444F61F61C0E90314846100F0CEFF22
:102D8000602000904FF4FA70CDE9010400226946FA
:102D90000C48049400F05CFF04226946094800F0E6
:102DA00057FF0021074800F0E7FF0421054800F025
:102DB000E3FF0EB010BD00003038024000000240BA
:102DC00000040040A000002010B5012809D0002117
:102DD000084600F00DF85A21BDE81040042000F02C
:102DE00007B85A21002000F003F80021F4E70000A2
:102DF0005A2900D95A214FF47A7211FB02F15A2252
:102E0000B1FBF2F1084A01F5FA71126828B1042801
:102E100005D0082805D0116470475163704791634D
:102E20007047D16370470000A00000201FB502A9C1
:102E300003A8FFF771FB00282CD09DF80C00204C54
:102E4000012814D002281BD0032824D0042821D123
:102E500021786078CDE9000163792279E1789DF8E5
:102E60000800FFF7BFFD9DF8081016A010E0012034
:102E700020702078FFF7A8FF9DF808101AA007E03F
:102E8000002020702078FFF79FFF9DF808101EA0FB
:102E9000FDF7E2FA1FBD207840B1002020702078B5
:102EA000FFF792FF207818B11FA202E00120F5E79A
:102EB0001FA29DF8081020A0FDF7CEFA1FBD00004C
:102EC0000000002045535020434D44286C696E6B30
:102ED000202575293A2053544154555320515545C6
:102EE00052590D0A0000000045535020434D44281C
:102EF0006C696E6B202575293A20444F4F52204F44
:102F000050454E0D0A00000045535020434D4428C3
:102F10006C696E6B202575293A20444F4F5220432F
:102F20004C4F53450D0A00004F50454E0000000025
:102F3000434C4F534500000045535020434D442817
:102F40006C696E6B202575293A20444F4F522054EE
:102F50004F47474C45202D3E2025730D0A000000A9
:102F600010B5134CE0780128607802D058B111A157
:102F70000AE008B10FA300E011A36279217912A041
:102F8000FDF76AFA03E00EA116A0FDF765FAA07935
:102F9000617888420BD06078A071607808B105A193
:102FA00000E007A1BDE8104015A0FDF755BA10BD1F
:102FB00000000020444554454354454400000000AF
:102FC00049444C450000000054454D503D25754393
:102FD0002048554D493D25752525205049523D2510
:102FE000730D0A00444854313120726561642066D3
:102FF00061696C205049523D25730D0A00000000A4
:103000005049522025730D0A0000000010B586B00B
:1030100014216846FDF7FEFC314CE079A8B9012087
:10302000E07100F0F5FF002110232EA2084601F008
:10303000BDF810232DA21946002001F0B7F8102387
:103040002CA22021002001F0B1F8E0780128A07A1C
:1030500014D058B1102329A20021302001F0A6F885
:10306000102328A21021302001F0A0F8E07A617826
:1030700088422BD0607818B324A222E0012803D123
:10308000207A217988420ED0237923A21421684620
:10309000FDF7EEF910236A460021302001F086F892
:1030A000A07A012803D1607A61798842DED0637901
:1030B0001BA214216846FDF7DBF910236A46D1E70D
:1030C0001AA210232021302001F070F820792072FC
:1030D00060796072E078A0726078E07206B010BD2E
:1030E0000000002054454D503A00000048554D491D
:1030F0003A0000005049523A000000002D2D4320B4
:10310000202020002D2D252020202000444554453E
:1031100043544544200000002533754320202000FF
:1031200025337525252020200000000049444C450A
:103130002020202020000000FEE7000030B585B0F0
:10314000002414216846FDF765FC20200090002033
:1031500001900120124D02906946284600F014F9B2
:1031600005E0012000F01EF8641C782C0DD8202109
:10317000284600F001FA0128F3D0002408E00120DD
:1031800000F010F8641C782C02D9012005B030BD85
:103190002021284600F0F0F90028F0D00020F5E7C3
:1031A0000000024070B5074C0546666800F030FB31
:1031B0000549B0FBF1F169436068801B8842FBD38D
:1031C00070BD0000001000E040420F000F4808B53D
:1031D0000268002142F001020260006800F0010074
:1031E00000900B480268D20103D4026842F080725A
:1031F000026008484160016841F00101016000F08F
:103200006FF8BDE80840FFF799BF00003038024072
:10321000FCED00E0001000E02DE9F0410020194E27
:10322000044680464006070E002505E00120FFF712
:10323000B9FF6D1C642D1CD82021304600F09CF98C
:103240000128F3D0002505E00120FFF7ABFF6D1C3E
:10325000642D0ED82021304600F08EF90028F3D0DE
:103260002820FFF79FFF2021304600F085F9012834
:1032700000D04046641C3843E4B2082CD2D3BDE8E9
:10328000F0810000000002402DE9FC4106460020CC
:103290000D460090019000F023F8FFF74FFFC0B9F2
:1032A00000246F46FFF7B8FF3855641CE4B2052CC4
:1032B000F8D39DF800109DF801009DF803300A181E
:1032C0009DF8020003441A449DF80430D2B29A4299
:1032D00002D00120BDE8FC81297030700020F9E7A0
:1032E00010B586B014216846FDF794FB20200090AD
:1032F00001200190029000200C4C0390694620466A
:1033000000F042F800222021204600F042F914206B
:1033100000F01AF801222021204600F03AF906B008
:103320001E20BDE81040FFF73DBF00000000024036
:103330007047012000F01CB8022000F019B81020DE
:1033400000F016B872B6FEE770B5044600F026F934
:103350000546601C02D004480078044400F01EF9C1
:10336000401BA042FAD370BD1C00002000F0D2BD6B
:10337000044910B50A68024202D00860FFF7F6FF60
:1033800010BD0000143C01402DE9F84FDFF8BCA14E
:103390000022012503264FF00F090AF1040BAAF1C0
:1033A000040E00BF0B6805FA02F42340A34270D15B
:1033B0000F7907F00307012F01D0022F16D187687C
:1033C0004FEA420806FA08FC27EA0C07D1F80CC0BD
:1033D0000CFA08FC4CEA070CC0F808C04768A74381
:1033E0000C79C4F3001494403C4344600C79E443EA
:1033F000A4070AD0C4684FEA420C06FA0CF7BC4393
:103400008F6807FA0CF72743C7600C7904F00304B0
:10341000022C12D1D40800EB840CDCF820405707B2
:10342000FF0E09FA07F824EA0804D1F8108008FA18
:1034300007F848EA0408CCF8208004684FEA420CF8
:1034400006FA0CF7BC430F7907F0030707FA0CF7ED
:10345000274307604C6814F4403F70D03C4C276809
:1034600047F480472760246822F0030704F480446F
:103470000094384C07EB040CDCF8084897074FEA37
:10348000177809FA08F7BC43334FB84202D1002736
:1034900024E054E0314FB84201D101271EE0304F03
:1034A000B84201D1022719E02E4FB84201D10327BB
:1034B00014E02D4FB84201D104270FE02B4FB84242
:1034C00001D105270AE02A4FB84201D1062705E0BD
:1034D000284FB84201D1072700E0082707FA08F76C
:1034E0002743CCF80878DAF800405746D1F804C0F2
:1034F0009C435FEACC2C00D51C433C60DBF80040C9
:103500005F46D1F804C09C435FEA8C2C00D51C4375
:103510003C60DEF800407746D1F804C09C435FEA87
:103520008C3C00D51C433C60084F083F3C68D1F8F8
:1035300004C09C435FEACC3C00D51C433C60521C59
:10354000102AFFF42FAFBDE8F88F0000083C0140BF
:1035500044380240003001400000024000040240B4
:1035600000080240000C024000100240001402401B
:1035700000180240001C02400069084000D00120F1
:103580007047426921EA02030A4043EA024181612D
:1035900070470AB1816170470904FBE70148806800
:1035A000704700001C000020024881680278114426
:1035B000816070471C0000200B4810B5016841F481
:1035C00000710160016841F480610160016841F4AB
:1035D00080710160032000F06FF80F2000F006F802
:1035E00000F024F8002010BD003C024070B50D4DE5
:1035F00004464FF47A712878B1FBF0F00A49096863
:10360000B1FBF0F000F010FB48B9102C07D20022FB
:103610002146501E00F030F800206C6070BD012083
:1036200070BD00001C000020280000200A4808B5DA
:10363000016841F480410160006800F4804000901E
:103640000548001F016841F080510160006800F0EA
:103650008050009008BD000044380240002809DB7B
:1036600000F01F02012191404009800000F1E0209C
:10367000C0F8001170470000F0B40E4B1B680C46F8
:10368000C3F30223C3F10705042D00D90425191D36
:10369000072901D2002300E0DB1E012606FA05F10E
:1036A000491E214099409E40761E16403143F0BC91
:1036B00001F040BD0CED00E0064900F0070208688B
:1036C0004FF6FF03184040EA0220034A1043086007
:1036D000704700000CED00E00000FA052DE9F0470E
:1036E0000E46050065D0DFF81481D8F80000F7B267
:1036F00000F00700B04207D288F80070D8F8000048
:1037000000F00700B04254D128683D4C810712D523
:10371000400703D5206840F4E05020602878000777
:1037200003D5206840F4604020602068A96820F03C
:10373000F000084320602878C0072DD03049686821
:103740000839012812D0022813D0032811D00968A3
:10375000890700292DDA216821F003010143216046
:10376000FFF71CFF814641F2883A0EE009688903A1
:10377000EFE709688901ECE7FFF710FFA0EB09010B
:10378000514502D90320BDE8F0872068696800F040
:103790000C00B0EB810FEFD1D8F80010404601F0DB
:1037A0000701B14207D90770006800F00700B04276
:1037B00001D00120E7E72878400705D52068E968AF
:1037C00020F4E050084320602878000706D52068E0
:1037D000296920F4604040EAC100206000F03EF812
:1037E0002168084AC1F30311515CC84006490860CA
:1037F00006480068FFF7FAFE0020C4E7003C0240DC
:1038000008380240BA550008280000202000002097
:10381000014800687047000028000020044805495E
:1038200000680968044AC1F38221515CC8407047AE
:103830002800002008380240CA55000804480549FD
:1038400000680968044AC1F34231515CC8407047BE
:103850002800002008380240CA550008154810B555
:10386000006810F00C02144813D04110042A0FD045
:10387000082A0ED10F4C241F2268236802F03F0251
:103880005B0207D52068C0F38810A0FB010106E0A9
:10389000084610BD2168C1F38811A1FB0001002377
:1038A000FCF739FD2168C1F30141491C4900B0FB17
:1038B000F1F010BD083802400024F4002DE9F84F63
:1038C00004006ED02078DFF84C93C007A9F10405FE
:1038D0004AD009F104000168C1F38101012908D02F
:1038E0000068C0F3810002280AD1D9F80000400224
:1038F00006D52868800337D560680028E1D033E01A
:103900006068B0F5803F10D0B0F5A02F286810D0C7
:1039100020F480302860286820F4802028606068C7
:10392000A8B1FFF73BFE06460DE0286840F4803062
:10393000F4E740F480202860F7E700BFFFF72EFE91
:10394000801B642873D828688003F7D50CE0FFF744
:1039500025FE064605E000BFFFF720FE801B642819
:10396000F0D828688003F7D42078DFF8AC8280078D
:103970004FF0000A3ED5A748001D016811F00C0F5A
:1039800008D00068C0F3810002280BD1D9F80000EC
:10399000400207D42868800716D5E068012800D1C6
:1039A00012E033E1E068B8B10120C8F80000FFF789
:1039B000F5FD064605E000BFFFF7F0FD801B02287D
:1039C000C0D828688007F7D52868216920F0F8005A
:1039D00040EAC10028600DE0C8F800A0FFF7DEFD56
:1039E000064604E0FFF7DAFD801B02281FD828688E
:1039F0008007F7D42078000722D5864F8748616971
:103A0000703771B101210160FFF7C8FD064604E07F
:103A1000FFF7C4FD801B022809D838688007F7D556
:103A20000EE0C0F800A0FFF7B9FD064605E082E011
:103A3000FFF7B4FD801B02287DD838688007F7D4D3
:103A40002078400768D5DFF8CCB100270BF13C0B9C
:103A5000DBF80000C0000BD4DBF8001041F080510F
:103A6000CBF80010DBF80000012700F08050009038
:103A70006B4E3068C00510D4306840F48070306000
:103A8000FFF78CFD009005E0FFF788FD0099401AD4
:103A9000022850D83068C005F6D55E4EA0686C3656
:103AA00001280FD00528306810D020F001003060C8
:103AB000306820F004003060A068B8B1FFF76EFDF8
:103AC00000900FE0306840F00100F4E740F004009F
:103AD0003060F7E7FFF762FD0099411A41F2883044
:103AE000814266D830688007F4D50EE0FFF756FDB6
:103AF000009007E0FFF752FD0099411A41F288302B
:103B0000814256D830688007F4D42FB1DBF800101A
:103B100021F08051CBF80010A069C8B33D49091DC0
:103B20000968C1F3810102294AD00228504607D012
:103B3000C8F8600000E03CE0FFF730FD04463BE0E1
:103B40004746C8F86000FFF729FD064605E000BFBC
:103B5000FFF724FD801B02282BD828688001F7D4AA
:103B6000D4E907010843A16A2E4A490802EB014142
:103B7000626A41EA8211084394F82C1040EA01611C
:103B8000C9F8001001203866FFF708FD044606E07A
:103B90003EE000BFFFF702FD001B022809D828689D
:103BA0008001F7D534E000BFFFF7F8FC001B0228C6
:103BB00002D90320BDE8F88F28688001F4D427E0FB
:103BC0000128F7D0D9F80000E26900F480019142A1
:103BD0001CD1226A00F03F01914217D147F6C07113
:103BE000626A0140B1EB821F10D1A26A4FF0FF332D
:103BF00000F4403103EB5202B1EB024F06D194F8CE
:103C00002C1000F07060B0EB016F01D00120D1E703
:103C10000020CFE70438024000004742800E4742B0
:103C2000007000400000FFFF10B5401EB0F1807F23
:103C300001D3012010BD4FF0E02460610F21601717
:103C400001F078FA0020A06107202061002010BD5B
:103C500070B5044690F83C0000260D4601280FD0B0
:103C6000012084F83C006AB1042A1DD0082A2FD014
:103C70000C2A3FD00126002084F83C00304670BD5D
:103C8000022070BD206800F0E1FB2068816941F0EE
:103C9000080181612068816921F004018161206847
:103CA00081692A69114311E0206800F0FFFB206858
:103CB000816941F4006181612068816921F480613A
:103CC0008161206881692A6941EA02218161D2E724
:103CD000206800F021FC2068C16941F00801C16141
:103CE0002068C16921F00401C1612068C1692A69A5
:103CF000114311E0206800F043FC2068C16941F4E1
:103D00000061C1612068C16921F48061C1612068DE
:103D1000C1692A6941EA0221C161ACE710B504001A
:103D200003D094F83D0010B107E0012010BD002041
:103D300084F83C00204600F01EF8022084F83D0084
:103D4000211D206800F008FB012084F8460084F85B
:103D50003E0084F83F0084F8400084F8410084F875
:103D6000420084F8430084F8440084F8450084F855
:103D70003D00002010BD704710B50446022249B135
:103D800004290ED0082913D094F84100012816D038
:103D9000012010BD94F83E000128F9D184F83E209E
:103DA0000FE094F83F000128F2D184F83F2008E0AA
:103DB00094F840000128EBD184F8402001E084F819
:103DC00041200122206800F033FB16492068164A82
:103DD000884201D0904203D1436C43F400434364D2
:103DE0002068884213D0B0F1804F10D00F4988422C
:103DF0000DD00F4988420AD00E49884207D0904220
:103E000005D00D49884202D00C49884204D181680E
:103E100001F00701062903D0016841F001010160AA
:103E2000002010BD000001400004014000040040DB
:103E300000080040000C0040004001400018004015
:103E400070B5040004D094F84100002510B106E0DC
:103E5000012070BD84F84050204600F023F8242053
:103E600084F841002068C16821F40051C1602046F7
:103E700000F090FE2068016921F490410161206802
:103E8000416921F02A0141612068C16841F4005173
:103E9000C1606564202084F8410084F842006563B5
:103EA000002070BD10B586B0044614216846FCF7AA
:103EB000B1FD14492068884221D1134800210268CD
:103EC00042F010020260006800F0100005900E48F9
:103ED0001438026842F001020260006800F001003C
:103EE00005904FF4C06000900220CDE9010103204D
:103EF00003900720049069460448FFF745FA06B08E
:103F000010BD000000100140443802400000024093
:103F1000FEE70000012801D1014908707047000048
:103F2000560000200249087800220A7070470000FD
:103F30005600002000B587B014216846FCF76AFDE2
:103F40000F480021026842F001020260006800F0A0
:103F500001000590012000904FF48810019002208C
:103F6000CDE9020169460748FFF70EFA0022114623
:103F70000620FFF781FB0620FFF770FB07B000BDAE
:103F80003038024000000240114808B5016841F095
:103F900080010160016801F080010091016841F039
:103FA00001010160016801F001010091016841F027
:103FB00002010160016801F002010091016841F015
:103FC00004010160006800F00400009008BD0000DA
:103FD000303802400C4810B50A4901604FF4E13115
:103FE0004160002181600C22C160C0E9041281613E
:103FF000C161FFF725FF002803D0BDE81040FFF79F
:10400000A1B910BD0010014058000020FEE7FEE7F6
:1040100010B54FF480610348FCF7DAFCBDE81040AE
:1040200000F094B8C83D002030B585B01421684632
:10403000FCF7F0FC4148016841F0020101600168B1
:1040400041F0020101608015009011200124CDE9AA
:10405000010403203A4D039069462846FFF794F97E
:104060006002009069462846FFF78EF935493648C8
:1040700001E08168491E816081680029F9D1AE2084
:1040800001F04EFA002001F04BFA102001F048FA3E
:10409000402001F045FA812001F042FACF2001F0E2
:1040A0003FFAA12001F03CFAC82001F039FAA6201D
:1040B00001F036FAA82001F033FA3F2001F030FA7F
:1040C000D32001F02DFA002001F02AFAD52001F0CA
:1040D00027FA802001F024FAD92001F021FAF120FA
:1040E00001F01EFADA2001F01BFA122001F018FA92
:1040F000DB2001F015FA402001F012FA202001F037
:104100000FFA022001F00CFA8D2001F009FA1420B8
:1041100001F006FAA42001F003FAA62001F000FA4B
:10412000FFF776FFAF2001F0FBF907488021103040
:10413000047101804021418005B030BD303802401B
:1041400000040240502D19004000002070B5164EAA
:10415000002400BF04F1B000C0B201F0E1F900207A
:1041600001F0DEF9102001F0DBF901F09FF9782071
:1041700001F05AF901F0C0F9402001F055F901F0C1
:10418000BBF9002506EBC500005D01F04DF901F01B
:10419000B3F96D1CEDB2802DF4D301F09FF9641CCE
:1041A000E4B2082CD6D370BDC83D00202DE9F047FD
:1041B000DFF87C8005461C4698F8040016460F463A
:1041C000002833D0A9460C2C29D0102C27D0182C2D
:1041D00025D0202C23D0182421E000BFB8F80010EF
:1041E000091BA94202DA39194D468FB2B8F802000C
:1041F000001BB8421ADB7F2A234608D239462846DC
:1042000000F0C8FF05EB540085B2761C07E032468B
:104210003946284601F02EF8281985B2B61C3278A6
:10422000002ADBD1BDE8F047FFF790BFBDE8F0877B
:104230005000002070477047FFF7B6B930B593B013
:1042400030216846FCF7E6FB14210CA8FCF7E2FBE2
:104250001D480025016841F080510160006800F0B0
:10426000805011901948016841F480410160006854
:10427000022400F48040119001200090000401907D
:104280008001CDE9064008AA0420A82182E8130095
:104290000B906846FFF712FB08B172B6FEE70CA957
:1042A0000F2081E831004FF4A0500F904FF4805060
:1042B000109005210CA8FFF711FA002801D072B662
:1042C000FEE713B030BD00004038024000700040EF
:1042D00070B5194C2068194A10F00C01184804D028
:1042E0005510042903D0082903D002601BE00560A3
:1042F00019E01149091F0B68C3F380560B6803F0DE
:104300003F0316B1B5FBF3F201E0B2FBF3F20B6829
:104310000968C3F388135A43C1F30141491C49009A
:10432000B2FBF1F101602168064AC1F30311515C4F
:104330000268CA40026070BD083802400024F400E0
:1043400028000020BA5500080248016841F47001B5
:104350000160704788ED00E0F0B50268294C2A4DF5
:104360002A4E2B4F2B4B4FF0804CA04209D060457A
:1043700007D0A84205D0B04203D0B84201D098423D
:1043800004D122F0700E4A6842EA0E02A0421BD00D
:10439000604519D0A84217D0B04215D0B84213D00A
:1043A000984211D01C4DA8420ED01C4DA8420BD0F3
:1043B0001B4DA84208D01B4DA84205D01A4DA8425B
:1043C00002D01A4DA84203D122F44075CA682A438C
:1043D0004D6922F080022A4302608A68C2620A683C
:1043E0008262A04201D0984201D109690163012192
:1043F00041610169C90703D0016921F0010101612F
:10440000F0BD000000000140000400400008004032
:10441000000C004000040140004001400044014005
:104420000048014000180040001C004000200040EF
:1044300010B501F01F030121046A99408C43046206
:10444000016A9A401143016210BD0000F0B5036A91
:10445000026A22F00102026242688469124E24F06C
:1044600073050C682C4323F002058B682B430D4D1C
:10447000A84201D0B04205D123F00807CB683B43E6
:1044800023F00403A84201D0B04205D14D6922F4C3
:10449000407215438A692A434260846149684163D6
:1044A0000362F0BD0000014000040140F0B5026A63
:1044B000036A23F010030362436884690D6824F4DF
:1044C000E64444EA05248D6822F0200242EA0512FF
:1044D0000F4D104EA84201D0B04206D1CF6822F055
:1044E000800242EA071222F04002A84201D0B04204
:1044F00007D14D6923F4406343EA85038D6943EA9C
:10450000850343608461496881630262F0BD0000F5
:104510000000014000040140F0B5026A036A23F480
:10452000807303624368C46922F4007224F0730547
:104530000C68124E2C438D6842EA05220E4DA842AB
:1045400001D0B04206D1CF6822F4006242EA0722CD
:1045500022F48062A84201D0B04207D14D6923F411
:10456000405343EA05138D6943EA05134360C46170
:104570004968C1630262F0BD0000014000040140CF
:1045800030B5046A026A22F4805202624268C3694A
:104590000D6823F4E64343EA05238D6824F40054B0
:1045A00044EA0534084DA84202D0084DA84204D17F
:1045B0004D6922F4804242EA85124260C361496833
:1045C0000164046230BD00000000014000040140AD
:1045D000F0B506464C4885B0016841F01001016015
:1045E00049481438016841F001010160474C002539
:1045F000E56014216846FCF70DFA4FF4C0600090A6
:1046000002200190012002900320039007200490D3
:1046100069463F48FEF7B8FE012211462520FFF704
:104620002BF82520FFF71AF8FFF752FE394F3868AC
:10463000400800EE100A3001B8EE401A00EE100AF1
:10464000B8EE400AC1EE000ABCEEE00A10EE100A15
:1046500080B200EE100AB8EE400A30EEC00AF3EE67
:10466000000A20EE200ABCEEC00A10EE101A89B231
:1046700041EA0010A060E560E06840F00400E060FE
:10468000E06840F00800E060E068E060E068E0605A
:10469000E068E0602561206920F440502061656198
:1046A000606920F040006061606920F08000606116
:1046B000E06820F08000E060E06840F02000E0600A
:1046C000E06840F01000E0606FF0F0002060E0680B
:1046D00040F40050E0601049A1F5A350416000F59E
:1046E000E35181600DA0FBF7B7FEFFF7F1FD1A491A
:1046F0003868B0FBF1F119A0FBF7AEFE3146204857
:10470000FBF7AAFE05B0F0BD44380240001001409E
:104710000000024028000020481500200D0D0D3D2E
:104720003D3D3D3D3D3D3D3D3D3D202053544D33C0
:104730003246343037564520CDE2C9E820B3F5CAB9
:10474000BCBBAFB1A8B8E6203D3D3D3D3D3D3D3D44
:104750003D3D3D0D0000000040420F00CFB5CDB300
:10476000CAB1D6D3C6B5C2CA20202020202020201E
:1047700020202020202564204D487A0D00000000D4
:10478000708A0008F0B50E4B00224FF4006C1646FC
:104790009D680AE09C89875C2F55641CA4B29C81AB
:1047A000644500D19E81521C92B28A42F2D30548E0
:1047B000C168090603D4C16841F08001C160F0BD41
:1047C000E8000020001001400149002008807047E7
:1047D000F80000200148406870470000F800002001
:1047E0000148008870470000F800002070B50646B8
:1047F000484886B0016841F40031016045481038EE
:10480000016841F001010160434C0025256014213D
:104810006846FCF7FFF80C20009002200190012070
:104820000290032003900720049069463B48FEF75E
:10483000ABFD012211462620FEF71EFF2620FEF7C3
:104840000DFFFFF745FD36480068800800EE100AAE
:104850003001B8EE401A00EE100AB8EE400AC1EE80
:10486000000ABCEEE00A10EE100A80B200EE100A58
:10487000B8EE400A30EEC00AF3EE000A20EE200A3D
:10488000BCEEC00A10EE101A89B241EA0010211FD6
:1048900008602560206840F004002060206840F037
:1048A0000800206020682060206820602068206068
:1048B000201D0560016821F440510160021D156052
:1048C000106820F040001060106820F08000106038
:1048D000206820F080002060206840F020002060E8
:1048E000206840F0100020600B496FF0F0000C3998
:1048F0000860206840F4005020600B48094941607E
:1049000001F50071816031460848FBF7A5FD06B04E
:1049100070BD0000403802400C44004000000240DE
:104920002800002048250020F8000020B48A000854
:104930002DE9F0410D4D002614460F462E8000F063
:1049400039F80DE0288840B12E8039466868FBF7B9
:10495000C9FF10B10120BDE8F081012000F00CFC7E
:104960002046641EA4B2EDD2F5E70000F800002056
:10497000F0B50E4B00224FF4007C16469D680AE00D
:104980009C89875C2F55641CA4B29C81644500D12E
:104990009E81521C92B28A42F2D3054801680906F0
:1049A00003D4016841F080010160F0BDF8000020EF
:1049B0000C4400400FB410B5ADF5007D4FF4007409
:1049C00021466846FCF726F883AB21466846829A62
:1049D000FBF728FD6846FBF797FF81B26846FFF7B3
:1049E000C7FF0DF5007D10BC5DF814FB2DE9F04705
:1049F000264D2868264C00064FF0000705F10406F6
:104A00004FF4007218D521480C300168090613D5FF
:104A1000E189A3685B5C3360491C89B2E181914202
:104A200000D1E781E189A289914203D1016821F097
:104A300080010160BDE8F0872868DFF858808006B3
:104A40000ED5B8F80600904203D313A0FBF704FD7F
:104A500019E032681B4B1A54401CA8F80600E9E71D
:104A60002868C006E6D52780914616496068FBF79E
:104A70006AFFB8F806102180A8F806704946114868
:104A8000FBF7C8FF28683068D4E70000004C0040FE
:104A9000180100202C000020BEAFB8E6A3BA554193
:104AA000525434B5A5D6A1BDD3CAD5C1BFA3ACD28B
:104AB000D1B3ACB3F6BDD3CAD5BBBAB4E6B4F3D068
:104AC000A10D2100480F00202DE9F041224C206863
:104AD000224D00064FF000074FF4007116D5E06834
:104AE000000613D5E889AA68125C6260401C80B297
:104AF000E881884200D1EF81E889A989884203D101
:104B0000E06820F08000E060BDE8F0812068144E8D
:104B100080060CD53089884203D312A0FBF79CFC99
:104B200017E061681A4A1154401C3081ECE7206894
:104B3000C006E9D52F8088460A4615496868FBF704
:104B400002FF30892880378141461148FBF762FF18
:104B500020686068D8E7000000500040280100206D
:104B60002C000020BEAFB8E6A3BA5541525435B56B
:104B7000A5D6A1BDD3CAD5C1BFA3ACD2D1B3ACB366
:104B8000F6BDD3CAD5BBBAB4E6B4F3D0A10D2100AB
:104B90004811002070B5044600680169E26821F4FC
:104BA0004051114301612169A068E26908436169CC
:104BB000114308432168CA6849F20C639A430243CF
:104BC000CA6020684169A26921F4407111434161C2
:104BD00031492068884202D03049884202D1FEF72C
:104BE0002DFE01E0FEF71AFEE2690023192164257B
:104BF0003226B2F5004F626828D0A0FB0101930F66
:104C00009200FBF788FB0146B0FBF5F06FF018024D
:104C1000504301EB800006EB0010B0FBF5F000F014
:104C2000F002B1FBF5F002EB0012B1FBF5F06FF012
:104C30001803584301EB800006EB0010B0FBF5F0C1
:104C400000F00F0021681044886070BDA0FB0101D6
:104C500092185B41FBF75FFB0146B0FBF5F00201E8
:104C6000B1FBF5F06FF01803584301EB800006EB41
:104C7000C000B0FBF5F000F0F80002EB4002B1FB21
:104C8000F5F0584301EB800006EBC000B0FBF5F0F7
:104C900000F00700D6E700000010014000140140BA
:104CA0002DE9F041234C2068234D00064FF000070A
:104CB0004FF4006116D5E068000613D5E889AA68AC
:104CC000125C6260401C80B2E881884200D1EF81B2
:104CD000E889A989884203D1E06820F08000E0607B
:104CE000BDE8F0812068154E80060DD530888842D9
:104CF00003D313A0FBF7B0FB1AE061680E4A6032E1
:104D00001154401C3080EBE72068C006E8D5884687
:104D10000A4609492F8060316868FBF714FE308825
:104D200028800548378041466030FBF773FE2068D5
:104D30006068D5E700100140E80000202C0000204A
:104D4000BEAFB8E6A3BA5541525431B5A5D6A1BD00
:104D5000D3CAD5C1BFA3ACD2D1B3ACB3F6BDD3CA0D
:104D6000D5BBBAB4E6B4F3D0A10D21002DE9F047CC
:104D7000264D2868264C00064FF0000705F1040672
:104D80004FF4007218D521480C300168090613D57C
:104D9000E189A3685B5C3360491C89B2E18191427F
:104DA00000D1E781E189A289914203D1016821F014
:104DB00080010160BDE8F0872868DFF85880800630
:104DC0000ED5B8F80200904203D313A0FBF744FBC2
:104DD00019E032681B4B1A54401CA8F80200E9E79E
:104DE0002868C006E6D52780914616496068FBF71B
:104DF000AAFDB8F802102180A8F8027049461148AF
:104E0000FBF708FE28683068D4E700000044004043
:104E1000F80000202C000020BEAFB8E6A3BA554130
:104E2000525432B5A5D6A1BDD3CAD5C1BFA3ACD209
:104E3000D1B3ACB3F6BDD3CAD5BBBAB4E6B4F3D0E4
:104E4000A10D2100480900202DE9F047264D2868D2
:104E5000264C00064FF0000705F104064FF480626F
:104E600018D521480C300168090613D5E189A368DB
:104E70005B5C3360491C89B2E181914200D1E781DA
:104E8000E189A289914203D1016821F0800101608A
:104E9000BDE8F0872868DFF8588080060ED5B8F89E
:104EA0000400904203D313A0FBF7D6FA19E032684E
:104EB0001B4B1A54401CA8F80400E9E72868C006F8
:104EC000E6D52780914616496068FBF73CFDB8F8A7
:104ED00004102180A8F8047049461148FBF79AFD98
:104EE00028683068D4E7000000480040080100202E
:104EF0002C000020BEAFB8E6A3BA5541525433B5DA
:104F0000A5D6A1BDD3CAD5C1BFA3ACD2D1B3ACB3D2
:104F1000F6BDD3CAD5BBBAB4E6B4F3D0A10D210017
:104F2000480B00202DE9F047264D2868264C000646
:104F30004FF0000705F104064FF4007218D5214820
:104F40000C300168090613D5E189A3685B5C336006
:104F5000491C89B2E181914200D1E781E189A289AE
:104F6000914203D1016821F080010160BDE8F08722
:104F70002868DFF8588080060ED5B8F80A009042FD
:104F800003D313A0FBF768FA19E032681B4B1A54DD
:104F9000401CA8F80A00E9E72868C006E6D5278083
:104FA000914616496068FBF7CEFCB8F80A102180DC
:104FB000A8F80A7049461148FBF72CFD28683068AC
:104FC000D4E7000000140140380100202C0000202C
:104FD000BEAFB8E6A3BA5541525436B5A5D6A1BD69
:104FE000D3CAD5C1BFA3ACD2D1B3ACB3F6BDD3CA7B
:104FF000D5BBBAB4E6B4F3D0A10D2100481300200C
:10500000FEE700002DE9F0410446134815460F461F
:10501000007800281DD0114E4FF000503060032062
:1050200000F026FAC4F3074000F022FAC4F3072088
:1050300000F01EFAE0B200F01BFA002404E0FF20AA
:1050400000F016FA3855641CAC42F8D34FF4005007
:105050003060BDE8F0810000C8410020180802401F
:1050600030B413464A0700D0012202EBD10212FBF2
:1050700001F2D4B202784078812A09D3402807D3BC
:10508000FF2805D0FF2A03D07F280DD240380CE03E
:105090000020014604E000BF401C03F8011BC0B221
:1050A000A042F9D330BC70474138813AD2B2C2EB4A
:1050B0004215C0B205EB821200EB420060430C299E
:1050C0000CD010290FD0182911D02029EAD1194667
:1050D000094B2246184430BCFFF794BF22461946BC
:1050E00000F52000F7E719462246044BF2E719467F
:1050F0002246034BEEE7000000C2CE0060C4A800C9
:10510000E074B40003B401984100009850EAC12053
:1051100018BF04204A0D18BF40F0010040F2FF7292
:10512000B2EB515F08BF40F00200012808BF052024
:1051300002B070470907090E002804DB00F1E020E7
:1051400080F80014704700F00F0000F1E02080F8B4
:10515000141D704730380A2801D201207047002002
:105160007047704703480F21C160C1684A1EC26082
:10517000FBD270474000002044F2740148430449C8
:10518000C860C868002802D0C868401EF8E77047A9
:105190002C0000202DE9F05F314C80461E460D4664
:1051A000A180580700D0012000EBD600710810FB49
:1051B00001F0203ADFF8A8A0607002F0FF0B002792
:1051C0000AF1100A47E00C2E14D0102E16D0182E1B
:1051D00018D0202E42D1234901EB8B104FF000094B
:1051E000C05D20702078E9B2000608F0FF000FD5FE
:1051F00001220EE00BEB4B001B4906E01B4901EBC3
:105200000B10EBE71A490BEBCB0001EB8000E5E755
:10521000002200F079F820786D1C40002070BAF868
:105220000200ADB2A84219D9A088281AB04209D10B
:1052300008F10100BAF80010A5881FFA80F841456E
:105240000CD906E009F1010000F0FF09B9F1080FDF
:10525000C8D37F1CFFB260788742B4D3BDE8F09F0B
:1052600040000020B2710008F2590008665E000894
:10527000566400082DE9F05F1F46824613460C462F
:10528000780700D0012000EBD70010FB07F11C4D80
:105290001C4A1846E9703946FFF7E2FEEC8000260A
:1052A000A14695F803B027E016484FF00008805D4E
:1052B000A870A878E1B200060AF0FF0001D501222B
:1052C00000E0002200F020F8A878641C4000A870DC
:1052D000A4B2A4EB0900B84205D10AF101004C4682
:1052E0001FFA80FA06E008F1010000F0FF08B8F1AB
:1052F000080FDED3761CF6B25E45D5D3BDE8F09F2D
:1053000040000020483D002030B5CC0801F00703E4
:1053100001259D40EBB2064D05EBC005C808285C91
:105320000AB1184302E063EA0000C043285530BDCB
:10533000C83D002003B501216846FFF723FA009815
:105340000CBD000008B500263546FEF735F9FEF71E
:1053500075FFFEF719FEFEF73DFEFDF70BFC2A4C2C
:105360004FF4FA67B1464FF4FA7800BFFEF7DAFD62
:1053700080B1207840B1002020702078FDF724FD16
:10538000207818B121A102E00120F5E721A123A096
:10539000FBF762F8FDF7A0FBFDF748FD6078FDF72D
:1053A0007BFCFEF7FBF8801BB84214D3FEF7F6F83F
:1053B0000646FDF7A3FC6070A078012805D11249CC
:1053C000491D481EFDF760FFD8B14846E070FDF763
:1053D000C7FDFDF71BFE2078009063786279217984
:1053E000E078FDF793FBFEF7D9F8401B404504D366
:1053F000FEF7D4F80546FDF75BFC0A20FDF7A4FF95
:10540000B4E70120E2E70000000000204F50454EC5
:1054100000000000434C4F5345000000444F4F52E2
:105420003D25730D0A0000002DE9F0470F4D0024C3
:1054300006464FF400794FF0007AAF154FF08078B0
:10544000300601D5484600E050462860FFF78AFE46
:105450002F60FFF787FEC5F800807006641C060EFB
:10546000E4B2082CECD3BDE8F08700001804024039
:1054700010B500214FF47A730B4A03E0491C89B23E
:10548000994209D89468A407F8D5D060002005E0B7
:10549000401C80B2984201D9002010BD9168C90714
:1054A000F6D0D068C0B210BD0030014010B50A4C33
:1054B0004FF40070206040102060FFF753FE4FF063
:1054C00000702060FFF74EFE4FF080702060BDE856
:1054D0001040FFF747BE00001804024010B5054C0D
:1054E0004FF00070206040142060FFF73BFE601515
:1054F000206010BD1804024010B5084C4FF4007035
:105500002060FFF72FFEA0152060FFF72BFE4FF065
:1055100080702060BDE81040FFF724BE18040240F0
:1055200010B50446FFF7C2FF7820FFF77DFFFFF7B5
:10553000E3FF0020FFF778FFFFF7DEFF2046FFF7CD
:1055400073FFFFF7D9FFBDE81040FFF7C7BF0000AA
:1055500010B500290AD00878002807D005487844FB
:10556000FCF7A8FB002801D0002010BD02487844B9
:1055700010BD0000BA350000B235000010B500299A
:105580000AD00878002807D005487844FCF792FB39
:10559000002801D0002010BD0248784410BD000052
:1055A0009E360000963600004FF04070E1EE100A83
:1055B0007047FBF7F0BDFBF725BF000000000000BF
:1055C00000000102030406070809000000000102B0
:1055D0000304224400C05FD555D55FC0000004021B
:1055E000090F080F080F080F080000FE0A8ABEAA5C
:1055F000ABAABE8A0A0008070008090A04040A09BF
:105600000800482A987F284A10EF08F80800090B7C
:1056100005050B000805020508008888FF4800FE04
:10562000AAAAFAAAAE0000080F0806010F04040493
:105630000F001060028C0000FE9292929292FE0087
:10564000000004047E01407E42427E427E42427E51
:1056500040001060028C00FE929292929292FE00A4
:10566000000004047E014448507F40407F5048447D
:1056700040000000FC242424FC252624FC242424AF
:10568000040040308F80844C55252525554C808062
:1056900080000000041464040CB4020242330200CF
:1056A000000040412111090503FF030509112141B3
:1056B0004000201008FC57545455FE5454545404D0
:1056C000000044442427150D05FF050D152525452B
:1056D000440000800004081800C000F8484848480A
:1056E00048484848FC00000000000000010780789E
:1056F0000700E02F2424E42424E424242FE02000C5
:1057000000000001013F3F2020203F2020203F20BB
:10571000203F2020203F2030200000000000F0101B
:1057200010101030D0121C1C1010F05010109810D7
:105730000000000000C0FF0101414141DF4949492B
:1057400049495FC1410101010000002018070040E4
:105750004040202011120C080C1211302020602033
:105760002000000040447850C0FE4060504C408013
:10577000F05E444040C0404000000050484844C3F0
:10578000E17F4141C6440C030FF08080FC1F000004
:105790000000004040202213120C0C064D3820104F
:1057A000180C07070C18303000000080808080FC47
:1057B0008880C080F8F888888888888888F8F80009
:1057C00000000040C04020FF10080884FF098888BE
:1057D0008888FF8888898908000000002020607F71
:1057E00020100C0300007F1010101010107F3F00DD
:1057F0000000000000000818706000008000F8F051
:1058000010101010101010101010F81000000000F0
:1058100000000000081870200080700F0000FFFFDB
:1058200042424242424242424242FF0000000000E5
:10583000000000004040C0E0FC070000FCF8090840
:1058400008F8F8080808F8F8080808F8FC08000044
:105850000000000000003F3F002020203F3F2020AC
:10586000203F3F2020203F3F2020203F3F2030305E
:1058700000000000000000E0C0404040404040C048
:1058800040445878504040C04040404060706040C4
:1058900000000000000000FFFF080808080808FFDB
:1058A000FF090808080808FFFF0908080C0C080091
:1058B000000000000000F07F030000000808081B43
:1058C0006BC90909090989EB7B3C1800000000003D
:1058D00000000040300E03404040402020201010C7
:1058E00018080D07060F0D181810303030703000F2
:1058F0000000000000001070E04000FCFC0800C048
:105900006030100000E07C1808000000000000007B
:105910000000000002828242221A0EFFFF0A1B32A0
:105920007203C2321EFF0202020202FE3E020302A4
:105930000000000009080808C8F89E0F0A08C8F807
:105940003C09000000001FF8C0F03F070000000005
:10595000000000002020201010080C05070303425F
:10596000462E1010080C06030103060C1C381010FC
:10597000100000000000000004F808000000000013
:10598000F80808080808080808080808FCF80000D3
:10599000000000020202020202FF02824243228051
:1059A000FF828282828282FAFA82828287C7C080E4
:1059B000000000001C0C060603FF01000000E07F51
:1059C0000700E0202020203F3F202020F0E00000C2
:1059D0000000000008081030381F20100C070100DC
:1059E00000007F0808080808080808083F3F000072
:1059F00000000000000000000000000000000000A7
:105A000000003F40000000000000000030004000A7
:105A100030004000000009000BC03D000BC03D00FD
:105A2000090018C024407FE02240318000001800A7
:105A300024C01B000D803240018003801C402740A1
:105A40001C800740004010006000000000000000C3
:105A500000000000000000001F80204040200000E7
:105A6000402020401F8000000000090006001F8029
:105A7000060009000000040004003F800400040048
:105A800000000010006000000000000000000400A2
:105A900004000400040004000000000000400000B6
:105AA000000000000000002001C006003800400097
:105AB00000001F802040204020401F800000000088
:105AC00010403FC000400000000018C021402240AC
:105AD00024401840000010802040244024401B80B7
